:020000040800F2
:1000000028070020DD000008192A00084120000808
:1000100000000000000000000000000000000000E0
:10002000000000000000000000000000B52D0008E6
:1000300000000000000000001B2A0008B72D000887
:10004000EF000008EF000008EF000008EF000008D4
:10005000EF000008EF000008EF000008A10300080F
:1000600000000000EF000008EF000008EF000008AB
:10007000EF000008EF000008EF000008EF000008A4
:10008000552E0008EF000008EF000008EF00000800
:1000900000000000EF000008EF00000885210008C4
:1000A000EF000008EF000008EF0000081935000815
:1000B0003D350008EF0000080000000000000000CF
:1000C0000348854600F092F8004800478938000848
:1000D0002807002080F30888704700000448804704
:1000E00004480047FEE7FEE7FEE7FEE7FEE7FEE71F
:1000F000452E0008C100000830B50B46014600201F
:100100002022012409E00D46D5409D4205D31D461D
:100110009540491B2546954040191546521E002D15
:10012000F1DC30BDF0B51FB40646002082B00546B4
:100130004024019100901BE0019922460F46304671
:1001400000F042F8049A059B801A994110D310469A
:100150001946224600F028F8361A8F4101972246A8
:1001600001200021009F00F01FF838184D41009039
:100170002046641E0028DFDC019B00982946324699
:1001800007B0F0BDD2B201E00270401C491EFBD2A4
:1001900070470022F6E710B513460A460446194692
:1001A000FFF7F0FF204610BD10B5202A04DB014602
:1001B000203A9140002010BD914020239C1A034614
:1001C000E3401943904010BD10B5202A04DB0846D7
:1001D000203AD040002110BD0B46D340D04020240F
:1001E000A21A91400843194610BD0000064C012593
:1001F000064E05E0E36807CC2B430C3C98471034CF
:10020000B442F7D3FFF760FFAC390008CC390008DF
:1002100070B50446206802F0CFFA002821D020688B
:1002200081688907C90F002904D181680E4A1140ED
:100230001031816000F030FB05460EE000F02CFB31
:10024000401B022809D9A06D10210843A065E06D6C
:1002500001210843E065012070BD206880684007E7
:10026000ECD4002070BD0000E8FFFF7F10B5074808
:1002700000F0E6F80648016801221205914301608A
:100280000520C021000700F0DBF910BD540000205C
:1002900040100240F8B50446206881688907CD0FF8
:1002A00002F086FA00282ED0002D2CD1206881681B
:1002B0000522114010260127012907D0A06D3043E7
:1002C000A065E06D3843E0650120F8BD81680F4A04
:1002D0001140891C816021680320086000F0DCFA6D
:1002E00005460CE000F0D8FA401B022807D9A06DA3
:1002F0003043A065E06D3843E0650120F8BD20681B
:100300008068C007EED10020F8BD0000E8FFFF7F45
:1003100010B500F014F800F003F800F007F810BD75
:1003200010B500F067F803F0BBF910BD704710B5C9
:1003300000F03EF803F0EFFA02F032FA10BD10B50B
:1003400062B600F04FFC02F03BFA02F07FFA02F0D6
:10035000C1FA02F0D9FA02F013FB02F03FFB02F0FF
:100360002FFD02F003FD10BD70B5034600200725E8
:1003700010E080221C78060603D54006000E684077
:1003800001E04006000E144200D068405208002AE6
:10039000F1D15B1C0A46491EC9B2002AE9D170BDE1
:1003A00010B5202000F0B4F910BD72B6FEE70000D1
:1003B00010B505220449012002F0EAFD002801D110
:1003C00000F004F810BD00001400002010B5092151
:1003D000162002F05FFB064C411C00D06080162105
:1003E000084602F057FB411C00D0E08110BD000020
:1003F0003400002010B520210148FFF7CAFE10BDCF
:100400003400002010B504460A46002C06D02046D1
:1004100003F0FCF9002804D0002010BD0020C043E8
:1004200010BDE18A20461830085C10709820015BEE
:10043000E08A401CFFF760FEE182012010BD000051
:1004400070B50446002C0AD0A06D02210843A065B7
:100450002046FFF7DDFE0546280002D00EE0012011
:1004600070BD2046FFF716FF0546280001D1012088
:10047000A06520688168194A114081602068416840
:10048000174A114041602168D04308602068C16864
:10049000144A1140C160206801698900890801611E
:1004A00020684169C908C90041612068016A0E4A93
:1004B000114001622068816A002686620B488168CB
:1004C0007F22920491438160204600F011F8266655
:1004D000E665A66540342675284670BDE8FFFF6FC7
:1004E00060FCFFFF00023E8300F000F000270140A7
:1004F00010B50068074988420AD1074801680122FF
:100500001205914301600520C021000700F098F812
:1005100010BD00000024014040100240F0B500284A
:100520000AD0014620314A79022A07D00422C26348
:10053000002008710120F0BD0120F0BD02681368A1
:100540000E24A3431360426C1468FF2301339C43C1
:100550001460026814686408640014600C4E7268C9
:10056000056C1C24254001242746AF403A437260A5
:10057000856CC26C6A60026D002A05D015689D43C7
:100580001560826D406D42604C7100200871F0BDB5
:1005900000000240F8B50024014620314A79022AC1
:1005A00003D00421C16301242DE0026813680E25E5
:1005B000AB431360026813685B085B001360426C16
:1005C0001368FF250135AB431360104E7268056C4C
:1005D0001C231D4001231F46AF403A437260856CC7
:1005E000C26C6A60026D002A06D016681D02AE4316
:1005F0001660456D826D6A604B7100220A71816BD5
:10060000002900D088472046F8BD000000000240C5
:10061000203040797047000010B500210748C943D9
:10062000C1620022C262016302638162826241622E
:10063000426200F013FB002010BD000000100240D9
:10064000F0B5002256E0012393409E460B40002B5C
:100650004FD09508294CAD002C19256E9607F70E42
:100660000F26BE403540AC4605252D07A84201D1D6
:1006700000250FE0224DA84201D101250AE0214DBD
:10068000A84201D1022505E01F4DA84201D1032552
:1006900000E00525BD40654511D1184D80352F6816
:1006A0009F432F606F689F436F60144D2F689F4377
:1006B0002F606F689F436F60236EB34323660468A7
:1006C00055000323AB401C430460D408A400241845
:1006D000266A5507EF0E0F25BD40AE43266284689B
:1006E0009C43846044687546AC434460C4689C4342
:1006F000C460521C0B46D340A5D1F0BD0018024087
:100700000004005000080050000C0050704700002A
:1007100070B50446074DE868204203D0EC602046DF
:1007200000F00AF82869204203D02C612046FFF728
:10073000EDFF70BD0018024070470000F0B50022C8
:100740008DE0012595402B40002B7DD04C68012C7D
:1007500005D0022C03D0112C01D0122C10D18668A8
:1007600054000327A740BE43CF68A74037438760A4
:100770004468AC430D79ED06ED0F95402543456087
:10078000C66855000324AC40A646A6438F68AF4018
:100790003743C7604C68022C01D0122C0ED1D4080C
:1007A000A4002418276AA4465607F40E0F26A64074
:1007B000B7430E69A6403E43644626620468764607
:1007C000B4430E79B607B60FAE40264306604C68B8
:1007D000E40043D59508254CAD002F193D6E9407D4
:1007E000E40E0F26A640B54305263607B04201D1D8
:1007F00000260FE01E4EB04201D101260AE01D4E38
:10080000B04201D1022605E01B4EB04201D10326C1
:1008100000E00526A6402E43144D3E66134E80365A
:1008200034689C434F68FF0300D51C4334607468F0
:100830009C434F68BF0300D51C4374602C689C43E5
:100840004E68F60202D500E008E01C432C606C689C
:100850009C434E68B60200D51C436C60521C0B686A
:100860001C46D44000D06CE7F0BD000000180240E8
:100870000004005000080050000C005000690842BD
:1008800001D00120704700207047002A01D081610B
:10089000704781627047000001488068704700001F
:1008A0000400002070B5024640325378202B01D05E
:1008B000022070BD1378012B19D001241470242359
:1008C000537003681D68A5431D6003681D682603F7
:1008D000B5431D6003681D680D431D600068016815
:1008E00021430160202050700020107070BD022054
:1008F00070BD70B5024640325378202B01D00220E3
:1009000070BD1378012B18D0012515702423537066
:1009100003681C68AC431C6003681C680F26360221
:10092000B44309022143196000680168294301604A
:10093000202050700020107070BD022070BD7047E4
:10094000704770B50446002C12D02420254640354F
:10095000687020680168490849000160204600F07D
:10096000A1F80020606468702063A870287070BDD2
:10097000012070BD70B5026893691168DB43DC0526
:1009800008D4CC43240605D4446C01252C4344648C
:100990002C02D4615A0509D4CA43120606D4426C0B
:1009A000082422434264E2010468E2619A0509D402
:1009B000C943090606D4416C022211434164110265
:1009C0000268D161416C0B22114201D001F08AFC16
:1009D00070BD026891691268436B002B00D0184704
:1009E0007047704770B50446002C06D02546403548
:1009F00068780026002802D005E0012070BD2E7026
:100A0000204600F071F824206870206801684908C9
:100A1000490001600F216068090688432168086168
:100A2000206882680121C9038A438260E068012846
:100A300009D02122A0689202104322689060E068E9
:100A4000022805D008E0A068226808439060F6E715
:100A500001202268C0025060206842680F4B1A4390
:100A600042602068C2688A43C260616920690843A5
:100A7000A169090208432168C860216AE069084346
:100A800021680860206801680122114301606664E2
:100A9000202068702663AE70002070BD00800002C8
:100AA0007047000038B500680C49884214D10C48E2
:100AB000C26B012149050A43C263C06B0840009024
:100AC000084C09132046FFF7BBFD40212046FFF7E5
:100AD000B7FD172000F0EAF838BD000000540040D0
:100AE000001002400004005010B586B004461421E6
:100AF00001A8FFF74EFB16492068884226D1154809
:100B0000C26B012149050A43C263C26B0A400092CD
:100B1000426B02210A434263406B08400090092067
:100B20008001019012200290012003900020049087
:100B30000620059001A90848FFF700FE0022114693
:100B4000172000F0BFF8172000F0B0F806B010BD75
:100B500000540040001002400004005070477047ED
:100B600070B50446002C0FD0216813480860216836
:100B7000124808602168606848602168A068886041
:100B8000FFF78AFE054608E0012070BDFFF784FEEE
:100B9000401B302801D9032070BD2068C0680028A0
:100BA000F4D120680269E1688A4201D0016101E064
:100BB00003490160002070BDCCCC000055550000F9
:100BC000AAAA0000006802490160002070470000E6
:100BD000AAAA0000024881680278891881607047DB
:100BE0000400002010B50024074801688215114355
:100BF0000160002000F00AF8002801D0012401E083
:100C000000F02EF8204610BD0020024070B50546C9
:100C10000024104E3178002919D07D20C000FFF744
:100C20006BFA01460C480068FFF766FA00F0F4FC26
:100C3000002801D001240BE0042D06D20022294611
:100C4000501E00F03FF8756002E0012400E001242E
:100C5000204670BD040000201000002070470000F6
:100C600008B509480168012211430160006810407D
:100C7000009005484038C26B01040A43C263C06B50
:100C80000840009008BD000040100240002809DB29
:100C9000C106C90E0120884003490860BFF34F8F89
:100CA000BFF36F8F7047000080E100E0002805DB94
:100CB000C106C90E01208840014908607047000044
:100CC00000E100E010B502F051FC10BD10B50F4C72
:100CD000216803225202914301432160C11FFF3961
:100CE000FA390ED10A480621006848430949FFF73E
:100CF00003FA401C02E0002805D0401E6169490546
:100D0000F9D4002010BD032010BD00000070004089
:100D10001000002040420F00FEB5044600250027C9
:100D200020686E4E800367D5002001906B484038E4
:100D3000C06BC0000AD469484038C16B020411433B
:100D4000C163C06B104000900120019064480168AD
:100D5000821511430160FFF79FFD029007E0FFF746
:100D60009BFD0299401A022801D9032503E05C4843
:100D70000068C005F3D5002D04D02F460198012846
:100D800034D039E0F06903210902084000280FD06F
:100D9000616A81420CD0F069032109028843F2693B
:100DA000012109040A43F261F2698A43F261F061A8
:100DB000C0070FD0FFF770FD029008E0FFF76CFD51
:100DC0000299411A4748814201D9032502E0F0699E
:100DD0008007F3D5002D01D02F46CFE7F06903211E
:100DE00009028843616A0843F061C7E73B4840381D
:100DF000C16B02049143C1632078C00705D07069BC
:100E0000616880088000084370612078C00606D5BC
:100E10007069032189028843A168084370612088B2
:100E2000800506D5706903218904884361690843F8
:100E300070612088400506D5706903210905884343
:100E4000A169084370612078800606D57069032186
:100E500009038843E168084370612088400411D584
:100E60007069E16980008008084370610121E069D0
:100E70008907884206D119484038C1680122120406
:100E80001143C1602068800210D570690121890575
:100E9000226A884310437061206A884206D10F4855
:100EA0004038C168012212061143C1602088000544
:100EB00012D5706903218903884321690843706151
:100EC000012120698903884206D104484038C1685D
:100ED000012212041143C1603846FEBD4010024099
:100EE0000070004088130000F8B504460D46002C41
:100EF0000FD0544800684007400FA84218D2514F05
:100F00003868C008C00028433860FFF7C5FC0646B3
:100F100009E00120F8BDFFF7BFFC811B4A48814270
:100F200001D90320F8BD38684007400FA842F2D12C
:100F30002068464E81070DD5400704D5B0680721CB
:100F400009030843B060B0680F2109028843A16813
:100F50000843B0602078C0073BD0606801280CD0FF
:100F600002280FD0002812D038494031032813D06E
:100F7000C969890715D40120F8BD3168890310D4E7
:100F80000120F8BD316889010BD40120F8BD31681A
:100F9000490506D40120F8BD096A890701D401205A
:100FA000F8BDB168C908C9000143B160FFF774FC1E
:100FB000074607E0FFF770FCC11B2348814201D9B7
:100FC0000320F8BDB068382108406168C900884234
:100FD000F0D11C4801684907490FA94216D9016898
:100FE000C908C90029430160FFF756FC074607E01E
:100FF000FFF752FCC11B1448814201D90320F8BD00
:10100000104800684007400FA842F1D120784007FF
:1010100006D5B168072000038143E0680143B16051
:1010200000F08EF8B1683C2289091140084A515CF1
:10103000C906C90EC8400749086007480068FFF79D
:10104000E5FDF8BD002002408813000000100240BA
:101050004C3900081000002008000020F8B5FFF708
:101060001BFC0446244D2868AE153043286006E07A
:10107000FFF712FC001B022801D90320F8BD2868E5
:101080004005F5D5012080036860FFF705FC0446A4
:101090000027AF6007E0FFF7FFFB011B1748814205
:1010A00001D90320F8BDA8688006400FF3D12E6057
:1010B0002E60FFF7F1FB044606E0FFF7EDFB001B97
:1010C000022801D90320F8BD28688001F5D4012049
:1010D0000003E860AF610020C04328620949084866
:1010E000086009480068FFF791FD002801D0012041
:1010F000F8BD0020F8BD0000001002408813000079
:101100000024F400100000200800002001480068BE
:10111000704700001000002000B5FFF7F7FF0649F8
:101120008968072212031140090B044A8900515CA7
:10113000C906C90EC84000BD001002408C39000825
:1011400010B5244CA068244A8006400F16D0A06831
:101150008006410F501001290FD0A1688906490F60
:10116000022914D0A0688006400F04282CD0A06863
:101170008006400F03282AD0002010BD20680121DE
:101180008004400F81401046FEF7B6FF10BDE168B5
:101190008B079B0FE1684906490F491C032B0CD0B4
:1011A0001046FEF7A9FFE1684904490E4843E1688B
:1011B000490F491CFEF7A0FF10BDFEF79DFFE16837
:1011C0004904490E4843F2E70120C00310BD7D20C9
:1011D000000210BD001002400024F400FEB50446D9
:1011E000002C0DD020783827C007FE4E002851D0A3
:1011F000B0683840F1688907890F102802D003E0F1
:101200000120FEBD03290AD0082808D0012160680A
:10121000090488420BD13068084330601AE0306816
:10122000800337D56068002834D10120FEBD052336
:1012300001221B049204984206D1306810433060AA
:1012400030680843306005E03068884330603068BB
:1012500090433060606800280ED0FFF71DFB054604
:1012600006E0FFF719FB401B642801D90320FEBDEF
:1012700030688003F5D50DE0FFF70EFB054606E06C
:10128000FFF70AFB401B642801D90320FEBD30682C
:101290008003F5D4207880076DD5B0683840F168B8
:1012A0008A07920F0721C902102801D1022A12D001
:1012B000002810D0E06800284AD0306888432169AF
:1012C000084330603068FF21013108433060FFF788
:1012D000E3FA054630E03268520502D5E268002A9A
:1012E0000AD072687F231B029A4363691B021A4368
:1012F0007260002802D010E00120FEBD30688843F3
:10130000216908433060306801218004400F81402A
:10131000B548FEF7F1FEB5490860B5480068FFF72B
:1013200075FC002827D00120FEBDFFF7B5FA401B51
:10133000022801D90320FEBD30684005F5D570684C
:101340007F2109028843616909020843706012E045
:101350003168FF20013081433160FFF79DFA054677
:1013600006E0FFF799FA401B022801D90320FEBDD1
:1013700030684005F5D420789E4D000734D5B0681C
:101380008006400F03280AD0A06900281AD0286AD6
:10139000012108432862FFF77FFA07460EE0286A1A
:1013A000800721D5A06900281ED10120FEBDFFF7CE
:1013B00073FAC01B022801D90320FEBD286A8007EA
:1013C000F5D511E0286A400840002862FFF764FA6A
:1013D000074606E0FFF760FAC01B022801D9032088
:1013E000FEBD286A8007F5D42078400776D5002016
:1013F0000190B0688006400F042818D0F06BC00040
:1014000009D4F16B012000070143F163F16B014046
:1014100000910120019078480168C9051AD401683B
:10142000821511430160FFF737FA07460EE0E869BD
:10143000800753D5A068002850D10120FEBDFFF7DA
:101440002BFAC01B022801D90320FEBD6A480068A0
:10145000C005F4D5A068012810D00421052812D0B9
:10146000E86940084000E861E8698843E861A068ED
:1014700000281CD0FFF710FA074614E0E8690121A4
:101480000843E861F3E7E8690843E861E869012196
:101490000843E861EBE7FFF7FFF9C11B57488142BA
:1014A00001D90320FEBDE8698007F4D50EE0FFF7FF
:1014B000F3F9074607E0FFF7EFF9C11B4F488142F8
:1014C00001D90320FEBDE8698007F4D40198012802
:1014D00004D1F06B012109078843F063E06900281B
:1014E0004FD0B1688906490F022956D001273F061F
:1014F00002280ED03068B8433060F0688008800061
:10150000F060F0683E490840F060FFF7C5F9044616
:101510003FE03068B8433060FFF7BEF9054606E0AB
:10152000FFF7BAF9401B022801D90320FEBD30683D
:101530008001F5D4616A206AA26A0843E16A120256
:1015400011430843216B0843616B0843F1682D4A3E
:1015500011400843F060306838433060F068012182
:1015600009070843F060FFF797F9044606E0FFF724
:1015700093F9001B022801D90320FEBD30688001C9
:10158000F5D546E0FFF788F9001B022801D90320B2
:10159000FEBD30688001F5D43BE0012837D0F0680B
:1015A000226A8107890F91422FD17021626A01401E
:1015B00091422AD17F21A26A09020140120291427E
:1015C00023D11F214904E26A014091421DD1072124
:1015D0004906226B0140914217D1400F616B4007D1
:1015E000884211E0001002400024F40010000020A6
:1015F00008000020401002400070004088130000E6
:10160000FFFFFEEE8C80C11103D00120FEBD012042
:10161000FEBD0020FEBD000010B50949401E8842F5
:1016200001D9012010BD074C60610321081F01F0A2
:101630009DFF0020A06107202061002010BD000058
:10164000FFFFFF0000E000E07047704770470000B8
:10165000F0B502462032137F012B27D001231377E8
:101660000223537704686368A568114EB44204D11D
:101670000F273F05BB434F683B437027BB430F68B1
:101680001F4367600068B04206D001239B07984261
:1016900002D0084B984204D180239D438968294396
:1016A00081600120507700201077F0BD0220F0BD4E
:1016B000002C01400004004070B50446022025467D
:1016C000203568772168086A0F4A104207D1086AF6
:1016D0009210104203D1086840084000086020467C
:1016E00000F03CF8002140342172A977E97721709D
:1016F0006170A170E17021716171A171E17169770F
:101700002977002070BD00001111000070B504465B
:10171000002C05D025462035687F002802D006E041
:10172000012070BD00202877204600F029F8022013
:101730006877211D206801F09BFB01224034227252
:10174000AA77EA7722706270A270E27022716271E9
:10175000A271E2716A77002070BD000010B50068C8
:101760000549884207D10548C16B02229143C163F4
:101770001020FFF78BFA10BD00040040001002405B
:1017800008B50068094988420FD10948C26B022197
:101790000A43C263C06B084000900022114610202B
:1017A000FFF790FA1020FFF781FA08BD000400400F
:1017B00000100240014620314A7F012A01D0012059
:1017C000704702224A770168CB6801221343CB603D
:1017D00000680D49884205D09107884202D00B4924
:1017E00088420BD181680A4B1940062909D0DB1FBA
:1017F000994206D001681143016002E0016811437B
:101800000160002070470000002C014000040040EF
:10181000070001000168CA6852085200CA600168E6
:101820000A6A084B1A4207D10A6A9B101A4203D16E
:101830000A68520852000A600121203041770020D6
:10184000704700001111000070B504462546203590
:10185000287F012817D001262E770220687720687C
:101860008268314B1A40FF231B029A4382600A6848
:10187000502A32D00EDC202A4DD006DC002A4AD075
:10188000102A4CD147E0022070BD302A43D0402AB4
:1018900045D136E0602A2AD0702A12D001231B03DA
:1018A000D01A3CD098423AD1CB684A6889682068FF
:1018B00001F034FB206881680122920311438160AA
:1018C0002DE0CB684A688968206801F027FB206812
:1018D000816877221143816021E0CA6849682068E5
:1018E00001F032FB5021206801F024FB17E0CA68A8
:1018F0004968206801F039FB6021206801F01AFB7B
:101900000DE0CA684968206801F01EFB402120688C
:1019100001F010FB03E01146206801F00BFB6E772D
:101920000020287770BD000088FFCEFF70470000C0
:1019300070B50446206801690025C943890700295C
:1019400016DBC168C943890712D4E91E0161012071
:10195000207720688069800703D02046FFF7E6FFE4
:1019600005E0204600F0AAF8204600F0A8F8257708
:1019700020680169C943490718D4C168C9434907A8
:1019800014D40421C94301610220207720688069B2
:101990008005800F03D02046FFF7C8FF05E02046F2
:1019A00000F08CF8204600F08AF82577206801695D
:1019B000C943090717D4C168C943090713D40821CB
:1019C000C9430161042020772068C069800703D0E3
:1019D0002046FFF7ABFF05E0204600F06FF82046F9
:1019E00000F06DF8257720680169C943C90618D44D
:1019F000C168C943C90614D41021C9430161082034
:101A000020772068C0698005800F03D02046FFF74B
:101A10008DFF05E0204600F051F8204600F04FF819
:101A2000257720680169C943C90708D1C168C9433E
:101A3000C90704D1891E0161204600F041F82068E1
:101A40000169C943090609D4C168C943090605D417
:101A50008021C94301612046FFF7F7FD2068016935
:101A6000C943C90508D4C168C943090604D4124949
:101A700001612046FFF7E8FD20680169C943490676
:101A800009D4C168C943490605D44021C94301614D
:101A9000204600F016F820680169C943890609D478
:101AA000C168C943890605D42021C9430161204684
:101AB000FFF7CCFD70BD0000FFFEFFFF70477047D1
:101AC000704770477047704770B505462C468034A4
:101AD000207801281AD00120207024206060286816
:101AE000066802685208520002602868826807236C
:101AF0005B069A430A438260284601F061FA28682F
:101B00000660202060600020207070BD022070BD43
:101B10007047704770B50446002C19D02420254624
:101B200080356860206801684908490001602068C4
:101B3000002606602068466020688660204600F027
:101B40007BF9EE606E60AE60E6662E70002070BDC0
:101B5000012070BD70470000F8B504462368D869BD
:101B600019689A68934D06462E40002E0ED18506C0
:101B70000CD5012720253F070D4017403D4305D0D8
:101B8000216F002901D020468847F8BD25468035C1
:101B9000002E7CD0884E894F16400F40374376D0B8
:101BA000C70706D0CF0504D501271F62EB683B436A
:101BB000EB60830708D5D30706D0276802233B6272
:101BC000EB6804273B43EB60430708D5D30706D0F7
:101BD000276804233B62EB6802273B43EB60030763
:101BE00009D520230B40334305D0266808233362F0
:101BF000EE681E43EE60030509D54B0107D50123AE
:101C00002668DB023362EB6820263343EB60EB6827
:101C1000002BBAD080060AD520200140C005024022
:101C2000114304D0216F002901D020468847E8687D
:101C300021688968490602D42821084221D020461B
:101C400001F0C0FA20688168490616D582684021F3
:101C50008A438260E06F00280AD059498163E06FAF
:101C6000FEF798FC002890D0E06F816B8847F8BDA4
:101C70002046FFF76FFFF8BD09E02046FFF76AFF37
:101C8000F9E72046FFF766FF0020E860F3E7E66E1D
:101C9000012E5CD1C6065AD5CE0658D510221A623E
:101CA0002068816826464906403600292EDAE36F0F
:101CB0001968496889B20029DDD0B78B8F42DAD91B
:101CC000F18319680968890618D4016813019943DA
:101CD0000160206881684908490081602068816846
:101CE0004023994381602020A8600020E06620689E
:101CF000016891430160E06FFEF710FCB08BF18B3F
:101D0000401A81B22046FFF7DDFEB4E7B18BF38BBA
:101D1000C91A89B2F38B002BADD00029ABD0036870
:101D2000FF262136B343036020688368224EF643C2
:101D3000334083602020A8600020E0662067206890
:101D40000368934303602046FFF7BCFE93E7C50298
:101D500008D5550206D50120000518622046FFF778
:101D6000D8FE88E703060CD501258023ED050B403E
:101D70002A40134305D0616F002987D02046884749
:101D800079E7420605D54A0603D5204601F036FA22
:101D900071E7020205D54A0003D52046FFF7B8FED9
:101DA00069E7C001B1D50029AFDA2046FFF78BFE05
:101DB00061E700000F08000001000010200100048E
:101DC0005931000870B50446002C05D025468035F1
:101DD0006868002802D006E0012070BD002028704D
:101DE000204600F055F82420686020680168490802
:101DF00049000160204601F00FFA012819D0A06ABD
:101E0000002802D0204601F00DF92068416809221F
:101E1000D20291434160206881682A229143816007
:101E200020680168012211430160204601F060F939
:101E300070BD012070BD000010B50168114A052079
:101E4000000791420DD110490A6801239B039A4370
:101E50000A6003214902FEF7F3FB1B20FEF716FF81
:101E600010BD0A4A9142FBD107494039CA6B012390
:101E70005B049A43CA63C913FEF7E2FB1C20FEF71A
:101E800005FF10BD003801404010024000440040F2
:101E9000F0B587B00446142102A8FEF77AF9284E5F
:101EA0002268052000232749012402250007B242A9
:101EB00022D1244A40321768A603374317601268BC
:101EC000324001924A6B22434A63496B214001919F
:101ED000032149020291039504930593069402A9F4
:101EE000FEF72CFC002201211B20FEF7EBFE1B203D
:101EF000FEF7DCFE07B0F0BD134EB242FAD1CA6B5A
:101F0000012676043243CA63CA6B324001924A6B9F
:101F100022434A63496BC907C90F01910B490291DA
:101F2000039504930593069402A9FEF707FC00228B
:101F300001211C20FEF7C6FE1C20FEF7B7FED9E7E4
:101F400000380140001002400044004004800000BE
:101F5000FFB583B004460E461546204680300290F9
:101F60004068202802D0022007B0F0BD002E0AD021
:101F7000002D08D00120A1680003814209D1206909
:101F8000002802D005E00120EEE7F00701D0012093
:101F9000EAE70298007801281DD00298012101701B
:101FA00002990020C860029821214160FEF774FC6C
:101FB000019027464037BD82FD820120A1680003C1
:101FC000814202D12069002807D0354600260299B7
:101FD0000020087018E00220C6E70025F7E7069801
:101FE0000090002280212046019B01F043FA002846
:101FF00001D00320B8E7002D15D0287821686D1C8A
:102000008862F88A401EF882F88A0028E7D106988C
:102010000090002240212046019B01F02BFA00286D
:1020200008D00320A0E73088B61CC0052168C00D89
:102030008862E6E7029820214160002094E770471B
:10204000FEE700000B4908688269D20502D5FF222D
:102050000132C26108688269920502D501225202EA
:10206000C26108688169490502D501218902C161FF
:102070007047000034020020F0B53F4F3868826995
:102080003E490A6009680A073D4912D58269D303AF
:102090000A46526807D5846901231C438461D80726
:1020A00002434A6002E05000400848603A68082055
:1020B000D06138688269304D9307314A4C35947845
:1020C0000022002B03DA022C0DD0FA238362386839
:1020D00083695B0729D50B78002B22D0022C11D005
:1020E000436A4A7021E0CB780A2B08D2EE5C866204
:1020F0005B1CD8B2C8700A28E9D3CA70E7E7FB2393
:102100008362E4E7CB780A2B08D2446AEC545B1C68
:10211000DBB2CB700A2B08D3CA7006E0436A4B705F
:1021200003E0436A8B7001230B708369DB060AD5D9
:102130001023C3610878002800D00A700123486882
:102140005B07184348603B689869800613D5486868
:10215000002806DA400040080124A4072043486014
:1021600003E001242407204348600878002800D0B9
:102170000A702020D861F0BD340200202800002021
:102180002000002010B50948006880694005400F14
:1021900005D00648FEF7EEFBFFF754FF10BD0348DD
:1021A000FEF717FCFFF768FF10BD000034020020A7
:1021B00010B5806A0022816B002900D08A63C16B50
:1021C000002900D08A6300F0B7FA10BDF0B50022F4
:1021D0000346CE0740332824B025002E05D04222E6
:1021E0005E782746B74300D0F2228E0705D54426F5
:1021F00032435B789C4300D02A43CB0B01D0B823F9
:102200001A43102901D190231A43202901D12023F8
:102210001A43402900D10A430068016891430160D4
:10222000F0BD01688A69D243920701D400228A6214
:1022300000688169C943C90703D08169012211433C
:1022400081617047F8B504462546403568782821F5
:102250008143206804D00821C16100202870F8BDA6
:102260008169C903CF0F8169FE230E0C1E4081686E
:102270008A05920DC16819408C46E16802290CD08C
:102280000121C9032046FFF7A1FF00202870324634
:1022900039462046FEF754FBF8BD0621D3090E400F
:1022A0000B409E420FD1A16C491CA164A16C022974
:1022B000F2D10021A1640823C36129703946204668
:1022C000FEF73EFBF8BD66460121C9032046FFF735
:1022D0007DFF00202870324639462046FEF730FB4D
:1022E000F8BD0000F8B5044625464035687800265C
:1022F000AE70374AE2626685626C0A4362642828DF
:1023000021D029281FD02A281DD032492046FFF786
:102310005DFF6878602801D0202068706663206BBC
:10232000A16B2D4F002903D0112815D0212813D0DF
:10233000E16B002903D012282CD022282AD0204675
:1023400000F0FAF9F8BD03212046FFF73FFF2820EF
:10235000687022486063E2E720680168490404D598
:1023600001680122920391430160A06BFEF750F9CE
:1023700001280BD0A06B87632E70A06BFEF70AF9C3
:102380000028DFD0A06B816B8847F8BD204600F0A5
:10239000D3F9F8BD20680168090404D50168012259
:1023A000D20391430160E06BFEF732F901280BD0B4
:1023B000E06B87632E70E06BFEF7ECF80028E8D046
:1023C000E06B816B8847F8BD204600F0B5F9F8BD99
:1023D0000000FFFF03800000B1210008FD25000878
:1023E00070B504461548E062002626632020254685
:1023F00040356870AE706663C843400712D42068E9
:10240000406A616A0870606A401C6062208D002822
:1024100008D0401E2085608D401E6085606C0421C0
:102420000843606406492046FFF7D0FE216810206B
:10243000C8612E702046FEF733FB70BD0000FFFF21
:1024400003800000F8B504460E462268176825464A
:10245000403568782021D161212806D0292804D070
:10246000222809D02A2807D00DE045492046FFF749
:10247000ADFE2120206306E041492046491CFFF7BC
:10248000A5FE22202063206841680122D203114367
:102490004160206841683B4A114041602046FFF797
:1024A000C0FEF84341040CD4206801680122920365
:1024B00091430160A06B002811D0006840686085DE
:1024C0000DE000040BD4206802680121C9038A438F
:1024D0000260E06B002802D0006840686085F0432D
:1024E0004007042100280FDB8E432068406A626A9F
:1024F0001070606A401C6062208D002804D0401E6D
:102500002085608D401E6085608D002802D0606C43
:10251000084360640027AF706763606C00280BD0CD
:10252000616C2046FFF7DEFE6878282803D131462B
:102530002046FFF755FFF8BDE06A134EB0420BD0BE
:10254000204600F023F8E6622020687027632F7091
:102550002046FEF7A5FAF8BD6878222807D020208B
:10256000687027632F702046FEF7F9FAF8BD202027
:10257000687027632F702046FEF7F0FAF8BD000060
:102580000180000000E800FE0000FFFF70B5054676
:102590002868016800262C464034A670C9434A04C6
:1025A00005D40168012292039143016006E0090409
:1025B00004D401680122D20391430160617828208C
:1025C00029290ED061782A290AD160702220286337
:1025D00002212846FFF7FAFD26702846FEF7BEFACC
:1025E00070BD60702120286301212846FFF7EEFDB1
:1025F00026702846FEF7B3FA70BD0000FEB504460B
:10260000E56A0091274640373878012828D0012014
:1026100038700098D643C04301908006002805DB3F
:10262000B00603D420460099FFF70CFF01984049FB
:10263000404AC00633D4F00631D4638D1020002BFD
:1026400010D02168C861606C042108436064002DCB
:1026500001D0954268D1616C2046FFF743FE63E0EC
:102660000220FEBD7A78282A08D10122520695421E
:1026700004D120460099FFF7B3FE55E07A78292A65
:102680000AD18D4208D02168C8612046FFF7C9FDF4
:102690002046FFF77BFF47E02168C86144E00198CE
:1026A00040071AD4700718D4608D00280CD0206819
:1026B000406A626A1070606A401C6062208D401E31
:1026C0002085608D401E6085608D00282CD18D4254
:1026D0002AD02046FFF75AFF26E00198000706D4CB
:1026E000300704D420460099FFF7ACFD1CE00198A8
:1026F000800719D4B00717D4608D00280DD0606A08
:10270000216800788862606A401C6062608D401EAB
:102710006085208D401E208506E0954201D0002D69
:1027200002D12046FFF732FF00203870FEBD0000C6
:102730000000FFFF0000000110B5014640314B785A
:102740000022602B04D002630A70FEF74AF910BD24
:1027500020234B7002630A70FEF7F1F810BD0000F1
:1027600038B50C48FEF7EDF80B48C26B012149055E
:102770000A43C263C06B08400090084C091320460E
:10278000FDF75EFF40212046FDF75AFF1720FEF7B8
:102790008DFA38BD340200200010024000040050C1
:1027A00010B50248FEF70EFA10BD0000B800002078
:1027B0008068C007C00F704780684007C00F70472F
:1027C00010B586B0142101A8FDF7E3FC1B48426B4D
:1027D00004210A434263426B0A400092426B022189
:1027E0000A434263426B0A400092426B0124224337
:1027F0004263406B204000902020019010480290DE
:10280000039101A90F48FDF799FF00221146072007
:10281000FEF758FA0720FEF749FA4020019002948B
:1028200000200390084C01A92046FDF787FF0122F4
:1028300040212046FEF729F806B010BD00100240E6
:1028400000001110000400500008005038B51E4C64
:102850001C4820601D4860600220A0600120E060EC
:10286000002020616061A061E06120622046FEF7E7
:10287000B9F8002801D0FDF798FD1548C16B012279
:1028800052051143C163C06B1040009000210E48F7
:10289000FEF708F8002801D0FDF787FD00210A485F
:1028A000FEF727F8002801D0FDF77FFD206841687A
:1028B0000122D20391434160BE21206802680A438D
:1028C000026038BD00540040340200205B3D3000FF
:1028D0000010024010B50948074901600421416019
:1028E0000749C16007498160FEF73AF9002801D025
:1028F000FDF75BFD10BD000000300040B800002077
:10290000FF0F0000FD0C000010B588B000240494F7
:10291000059406940794019402940394164815496B
:1029200001609F21416084601449C160046180217D
:102930008161FEF7EBFE002801D0FDF736FD012096
:102940000003049004A90C48FEF77EFF002801D084
:10295000FDF72BFD0194039401A90748FEF778FECB
:10296000002801D0FDF721FD0348FEF723FF08B042
:1029700010BD000000040040C800002087130000C4
:1029800010B5144C124820604B20000260600020FB
:10299000A060E06020610C216161A061E0612046DF
:1029A000FFF710FA002801D0FDF7FFFC00210948CD
:1029B000FFF78AF8002801D0FDF7F7FC20680168CE
:1029C00020221143016021680348086210BD000005
:1029D00000380140140100202505000010B50D4805
:1029E0000B490160E1214902416000218160C16021
:1029F00001610C2242618161C161016241628162B7
:102A0000FFF7E0F9002801D0FDF7CFFC10BD000072
:102A100000440040A4010020FEE7704770B5044662
:102A20000D46002C08D0204600F0FCFE002804D003
:102A3000214608A000F08AFD70BDA18A204618300A
:102A40000D549820015BA08A401CFDF755FBA18224
:102A500070BD00004369726342756620257320696A
:102A6000732066756C6C0000F8B507460D46164677
:102A7000002407E029193846FDF7C4FC012803D1DA
:102A8000641CA4B2B442F5D32046F8BD10B5FFF7DC
:102A9000EBFF10BDF8B504460D460A2000F07EFE9F
:102AA00000F0E3F8204600F0AAF800F021F91C4EEF
:102AB000401C29D0284600F0A2F800F019F9401C6B
:102AC00024D000F0D2F8641CE0B200F098F8684618
:102AD000047000F00DF9401C1AD0012000F051F8EC
:102AE0000546012000F04DF80446012000F049F8A9
:102AF00007466846457084700321FDF735FCC0B277
:102B0000B84207D03046F8BD3046F8BD3046F8BD73
:102B10003046F8BD00F0C9F82002284380B2F8BD65
:102B2000FFFFFFFF70B505242407216803229202EE
:102B30009143216021680122920211432160A18A00
:102B40001025A943A1822022002802D09143A1820E
:102B500001E01143A182462000F02EFEA08AA84386
:102B6000A082052000F028FEA08A2843A0825020E1
:102B700000F022FEA08AA843A082042000F01CFEE0
:102B800070BDF1B500250024052636073068032105
:102B900089028843306030683060B08A1027B843BB
:102BA000B082642000F008FEB08AB843B0823220C0
:102BB00000F002FE6006040EB08A3843B082322074
:102BC00000F0FAFD20213046FDF758FE012800D123
:102BD0000443B08AB843B0820A2000F0EDFD6D1CBA
:102BE000EDB2082DE0D30098002803D00120FFF7B4
:102BF00099FF02E00020FFF795FF2046F8BDF8B5E9
:102C0000054600240A2000F0D7FD05263607B08AC5
:102C10001027B843B08230680321890288433060AE
:102C20003068B90108433060280604D5B08A2021F5
:102C30000843B08203E0B08A20218843B08268064E
:102C4000050E322000F0B8FDB08A3843B082322041
:102C500000F0B2FDB08AB843B0820A2000F0ACFDAB
:102C6000641CE4B2082CDFD3F8BD70B5052424073A
:102C7000206803218902884320602068012189029D
:102C800008432060A08A2025284310263043A082D4
:102C9000322000F091FDA08AA843A082322000F0EB
:102CA0008BFDA08AB043A08270BD70B505242407B7
:102CB000206803218902884320602068012189025D
:102CC00008432060A08A1025A8432026B043A08294
:102CD000322000F071FDA08A3043A0820A2000F06B
:102CE0006BFDA08A2843A082322000F065FD70BDF4
:102CF00070B5002405252D07A88A1026B043202191
:102D00000843A8822868032189028843286028682C
:102D10002860642000F050FDA88A3043A8820A2071
:102D200000F04AFD0A4E0BE0641CA4B2B44207D97D
:102D3000FFF7BBFF07A000F009FC0020C04370BDF7
:102D400020212846FDF79AFD0028EDD170BD000036
:102D5000A8610000534D4220534441206C6F7720FE
:102D600074696D656F7574200D0A000010B586B02A
:102D7000142101A8FDF70DFA0D48426B01210A4309
:102D80004263406B08400090302001900291022085
:102D9000049003910524240701A92046FDF7CEFCE9
:102DA000A18A2020014310200143A18206B010BD5A
:102DB00000100240704710B5FDF70CFF10BD000079
:102DC00010B59CB038210EA8FDF7E3F900240A9451
:102DD0000B940C940D9428216846FDF7DAF9012034
:102DE0004002FDF773FF0A200E90FF200130119082
:102DF0001294402013900120149015940EA8FEF711
:102E0000EDF9002801D0FDF7D0FA07200A900B94C5
:102E10000C940D9400210AA8FEF766F8002801D052
:102E2000FDF7C3FA0648009001940394079468469E
:102E3000FDF772FF002801D0FDF7B7FA1CB010BDF6
:102E40002140000001200249C00688607047000050
:102E500000ED00E010B50448FEF76AFD0348016884
:102E6000491C016010BD0000C80000201C000020AB
:102E7000F0B502681A4B0124A4071A4D984203D0FA
:102E8000A04201D0A84203D17026B2434E6832431B
:102E9000154E164F98420AD0A04208D0A84206D03C
:102EA000134CA04203D0B04201D0B84204D1032455
:102EB0002402A243CC6822438024A2434C692243CB
:102EC00002608A68C2620A688262984203D0B04295
:102ED00001D0B84201D10969016301214161F0BD0E
:102EE000002C014000040040004401400048014023
:102EF0000020004010B50748FEF7DEFB0548FEF74E
:102F000089FC0548C16B02229143C1631020FDF783
:102F1000BDFE10BDC80000200010024030B584681E
:102F2000FF252D02AC431B0213430B432343836055
:102F300030BD00008268034B1A400A4307210A4350
:102F4000826070478FFFCFFF30B5036A046A640860
:102F5000640004628469F025AC43120122430A2410
:102F6000A3430B438261036230BD30B5036A102472
:102F7000A34303628369046A0F252D03AB43120345
:102F80001A43A0239C43090121438261016230BDA1
:102F900010B5434209480B4205D1002903D000680F
:102FA0000860042010BD0B680468E31A934203D341
:102FB00000680860002010BD0D2010BD1C0000201E
:102FC000F0B585B013A106C90392029113A106C9F9
:102FD000019200910446416E4034002915D00068EA
:102FE000816809014D0F8068400F6E46315C02AF69
:102FF000385CC000FDF780F86085785D715DC000C9
:10300000FDF77AF8208505B0F0BD012060852085A8
:10301000F9E70000010101030701000008040204B0
:103020000801010110B5018DC90707D001684A6880
:1030300001235B049A43C36A1A434A60018D8907DE
:1030400007D501684A6801231B049A43036B1A439E
:103050004A60018D490707D501684A6801239B042E
:103060009A43436B1A434A60018D090707D50168EB
:103070004A680123DB039A43836B1A434A60018D3C
:10308000C90607D501688A6801231B039A43C36BED
:103090001A438A60018D890607D501688A68012371
:1030A0005B039A43036C1A438A60018D490612D56B
:1030B00001684B6801221205446C934323434B6023
:1030C000416C914207D101684A6803235B059A432A
:1030D000836C1A434A60018D090607D501684A6866
:1030E0000123DB04C06C9A4302434A6010BD000018
:1030F000FEB50446254600268035EE60FDF7CCFB84
:10310000019020680068134F00070BD5012100973C
:10311000002249052046019B00F0ACF9002801D0AF
:103120000320FEBD2068006840070BD501210097F1
:10313000002289052046019B00F09CF9002801D05F
:103140000320FEBD20206860A860E6662E70002087
:10315000FEBD0000FFFFFF0110B5806A002201469E
:103160004031CA83CA82FEF7F5FC10BD10B5134882
:10317000FEF7D0FC124801680122920391430160DE
:1031800005240321240749022046FDF759FA1B2094
:10319000FDF77CFD09489030FEF7BCFC084940393A
:1031A000CA6B012040048243CA63C9132046FDF75D
:1031B00047FA1C20FDF76AFD10BD00001401002035
:1031C0004010024001680A68FF2321339A430A60D5
:1031D00001688A68084B1A408A60C16E012904D1CF
:1031E00001680A6810239A430A60202288210A5045
:1031F0000021C16601677047FEFFFFEF10B501684F
:103200000A6840239A430A60202284210A50002140
:103210004167FEF714FF10BDF8B5044600258B4B3F
:1032200020682269A168E66911436269324311434B
:10323000626E0A430168864E314011430160206886
:103240004168032212039143E26811434160A0697F
:103250002168994201D0226A10438A687D4E32402B
:1032600002438A602068C16A626A09090901114340
:10327000C1627949226879488A4213D1406980073E
:10328000800F07D0012809D0022805D0032807D0D5
:10329000102026E0002024E0022022E0042020E08C
:1032A00008201EE06E498A4201D1002019E09A42AE
:1032B00016D140690321890208400BD001218902FF
:1032C000401A0BD0401A07D0884201D1082008E0EC
:1032D000102006E0002004E0022002E0042000E0CC
:1032E000102001215F4F604EC9039A4243D100284C
:1032F0001AD0022805D004281AD008281CD000278C
:103300000125002F0FD0606A4000315A38460091E5
:10331000FCF7F2FE666871007118814202D8310331
:1033200081420BD2012586E0FDF7F6FE0746E8E76D
:10333000FDF706FF0746E4E70F46E2E700233846BD
:103340001946009AFCF7EEFE020E0902000273080D
:103350001143C0180022514132460023FCF7E2FE1F
:1033600003210902414A411A914202D82168C860EA
:1033700061E001255FE0E2698A4231D1002823D073
:10338000022805D0042823D0082825D000270125AD
:10339000002F50D0606A4000315A3846FCF7ACFE2E
:1033A000616840004A088018FCF7A6FE80B201461A
:1033B0002F4A1039914211D8511C01400007420F89
:1033C0000A432068C26036E0FDF7A6FE0746DFE745
:1033D000FDF7B6FE0746DBE70F46D9E701252AE0F1
:1033E00000281DD0022805D004281DD008281FD091
:1033F00000270125002F1ED0606A4000315A384650
:10340000FCF77AFE61684A088018FCF775FE80B206
:103410000146174A103991420CD82168C8600AE069
:10342000FDF77AFE0746E5E7FDF78AFE0746E1E786
:103430000F46DFE701250121204640304185018507
:103440000020206760672846F8BD0000008000402B
:10345000F369FFCFFFF4FF11003801404010024034
:10346000004400400024F40034390008FFFC0F0041
:10347000EFFF0000FFB581B00A9E04460F462546C7
:1034800080353BE0701C39D0FDF706FA0499401AEC
:10349000B04221D8002E1FD02068016849072DD5E1
:1034A000C069C043000529D401202168C002086218
:1034B00020680268FF21A1318A4302602068816888
:1034C00049084900816020206860A860E860002009
:1034D0002870032005B0F0BD20680168FF22A132EA
:1034E000914301602068816849084900816020207B
:1034F0006860A860002028700320EBE72068C1699D
:103500003846884305D0002003998842BAD000206D
:10351000E0E70120F8E7000010B50648FEF71CFBC5
:1035200004480549026811620068406AC0B200F0B0
:10353000F9F910BD140100202505000010B502485E
:10354000FEF70AFB10BD0000A40100200FB410B567
:1035500003A9044B044A029800F039F810BC08BCD7
:1035600004B01847F1370008300000208307FF221D
:10357000DB0E9A408907090E9940002808DB830872
:1035800009489B001818036893430B430360704776
:103590000007000F0838830804489B001818C36907
:1035A00093430B43C361704700E400E000ED00E08B
:1035B00002E008C8121F08C1002AFAD170477047FC
:1035C000002001E001C1121F002AFBD17047FFB5A6
:1035D00081B00546002706E025280AD0049A039901
:1035E00090476D1C7F1C28780028F5D1384605B01F
:1035F000F0BD002269786D1C10462E2913D1697820
:1036000004226D1C2A2909D102996D1C01C902915D
:1036100009E00A235843303808186D1C29780B46F6
:10362000303B092BF5D92B78002BDFD0632B07D04B
:10363000732B10D0049A1846039990477F1C2DE0F5
:1036400002996C460B782370091D0291002161706C
:103650006E46012104E0029940C902910021C9434C
:1036600052070AD5002400E0641C84420DDA8C4223
:10367000FADB325D002AF7D107E0002400E0641C89
:103680008C42FCDB305D0028F9D13F1904E0307832
:10369000049A761C03999047641EF8D26D1CA2E729
:1036A00010B59C210548FCF774FDFF21034801314A
:1036B000803001830221817610BD00008A02002043
:1036C00030B5C1B00024E443FF250135294601A8E7
:1036D000FCF75FFD294800F099F8002805D028A0E4
:1036E000FFF734FF204641B030BD244B012229466C
:1036F00001A800F0F3F8012801D02046F3E768465E
:103700000079FE2801D02046EDE71C4B0122294616
:1037100001A800F0E3F8012801D02046E3E768465D
:103720000079FE2801D02046DDE70A2000F036F8B7
:10373000124B0522294601A800F0D0F8052801D037
:103740002046D0E76846007ABB28CCD1684600798D
:1037500035280CD03728C6D10E48017800290BD067
:103760000022027040210C48FDF78FF8BBE70120D2
:10377000C00600F06BF8B6E70122F2E78A020020EB
:10378000636972632062756620697320656D707469
:10379000790000002C0000200008005070B505469C
:1037A00000247D26F60003E0304600F005F8641C96
:1037B000AC42F9D370BD000070B500220A4C6369B9
:1037C00085080A4800684543A169A0698842FCD081
:1037D000884202D2091A8A1802E01E1A71188A1841
:1037E0000146AA42F1D370BD00E000E018000020BD
:1037F00013B5044B012269460348FEF7A9FB009864
:103800001CBD0000FFFF0000A4010020002805D01F
:10381000818AC08A814203D101207047002070470D
:103820000020704710B50446002C0AD09820015B98
:10383000A08A401CFCF760FCE08A814203D1012091
:1038400010BD002010BD002010BD000070B5044662
:1038500020680C49084001214907884210D1FFF730
:1038600049FBFCF703FDFFF781FCFEF779FFFDF74D
:10387000F5FBFCF7D1FE65682068FCF72BFCA84738
:1038800070BD00000000FE2F08B5FCF741FD0D4C97
:103890000D4DFCF74CFD282269460120FFF778FB0F
:1038A0000028F6D12078002809D00022227040217B
:1038B0002846FCF7EAFF05A0FFF748FEE9E70122EA
:1038C000F4E700000000002000080050434A513295
:1038D0003830352074657374200D0A00FFB581B04F
:1038E0000746164600250024301B82B23919049879
:1038F000FFF7CCF821188CB2002809D0B44204D0CC
:103900000025052D01D2B442EED1204605B0F0BD10
:103910006D1CEDB2F5E708B5002000906846FFF792
:10392000CFFE08BD10B501460148FFF777F810BD7E
:103930008A020020010002000400060008000A00BC
:103940000C0010002000400080000001000000007A
:103950000000000000000000000000000000000067
:103960000000000000000000000000000100000056
:103970000200000003000000040000000600000038
:10398000070000000800000009000000000000001F
:103990000000000000000000000000000100000026
:1039A000020000000300000004000000CC39000801
:1039B0000000002034000000B0350008003A000884
:1039C00034000020F4060000C035000800000000AC
:1039D0000100000004000000000000000024F400CA
:1039E00000000000300000000000000000000000A7
:1039F00000000000000000000000000000000000C7
:04000005080000C12E
:00000001FF
