:020000040800F2
:1000000078080020DD0000080D290008D32600082C
:1000100000000000000000000000000000000000E0
:10002000000000000000000000000000412A00085D
:10003000000000000000000011290008432A000809
:10004000EF000008EF000008EF000008EF000008D4
:10005000EF000008EF000008EF000008BD030008F3
:1000600000000000EF000008EF000008EF000008AB
:10007000EF000008EF000008EF000008EF000008A4
:10008000E92A0008EF000008EF000008EF00000870
:1000900000000000EF000008EF000008EF0000087B
:1000A000EF000008EF000008EF000008B13800087A
:1000B000FD380008EF00000800000000000000000C
:1000C0000348854600F0E2F800480047E93F000891
:1000D0007808002080F308887047000004488047B3
:1000E00004480047FEE7FEE7FEE7FEE7FEE7FEE71F
:1000F000D92A0008C100000830B50B46014600208F
:100100002022012409E00D46D5409D4205D31D461D
:100110009540491B2546954040191546521E002D15
:10012000F1DC30BD70B500242546002801DA012439
:100130004042002901DA01254942FFF7DDFFAC42C8
:1001400000D04042002C00D0494270BDF0B51FB431
:100150000646002082B005464024019100901BE035
:10016000019922460F46304600F07FF8049A059B1D
:10017000801A994110D310461946224600F065F8BE
:10018000361A8F410197224601200021009F00F07E
:100190005CF838184D4100902046641E0028DFDCD2
:1001A000019B00982946324607B0F0BDF0B51FB458
:1001B00086B000200090019002900698069980B2C7
:1001C00004900798090C02040014114307900027BB
:1001D000089D099806913E463C4603900398A9B2B3
:1001E0000204000C039004982D0C15434843002191
:1001F000224600F02AF8C719714110340E46402CEF
:10020000ECDB3846029A00F020F8009A019B801837
:100210000090594102980191103002904028CCDBA7
:1002200000980BB0F0BDD2B201E00270401C491E34
:10023000FBD270470022F6E710B513460A46044683
:100240001946FFF7F0FF204610BD10B5202A04DB49
:100250000146203A9140002010BD914020239C1A75
:100260000346E3401943904010BD10B5202A04DB3B
:100270000846203AD040002110BD0B46D340D04064
:100280002024A21A91400843194610BD064C0125AE
:10029000064E05E0E36807CC2B430C3C984710342E
:1002A000B442F7D3FFF710FFEC4000080C41000800
:1002B00010B500F03FF810BD10B502F00DFA0120A6
:1002C00003F02CFD1548007800280DD000201349BC
:1002D00008701349088013480078342804D1262078
:1002E00003F088FE03F058FD14220F49012002F0AC
:1002F000BBFC00280ED10D480078002801D1012058
:1003000000E00020094908700846027840210848AA
:1003100000F0ECFB02F0FEFA10BD000034000020FB
:100320003600002064030020100000201800002088
:100330000008005010B500F02FFC02F0D5F902F0D3
:100340002DFA02F045FA02F083FA02F0ADFA02F05B
:100350007DFB02A003F0DAFA10BD0000626F6F743B
:100360006C6F61646572206F6B2021200D0A0000A4
:1003700070B503460D460024002116E0802210E0EF
:100380000120C0030840002803D049000A4841402A
:1003900000E04900185D1040002801D006484140A7
:1003A0005210002AECD1601CC4B228466E1EF5B271
:1003B0000028E3D188B270BD2110000010B52020C4
:1003C00000F090FA10BD72B600BFFEE7044949691B
:1003D0000122120402431143014A51617047000097
:1003E0000020024010B50346064A5269F824A24391
:1003F0001046CA00012424042243921C0243014CEB
:10040000626110BD0020024010B50849496901240D
:100410002143064C6161026000BF00BF00BFBFF313
:100420006F8F00BF00BF00BF436010BD00200240BF
:10043000F0B50246002314460D46114E7669012799
:10044000BF043E430E4F7E6100BFEFF3108630467F
:1004500072B605E02E6826602D1D241D5E1CF3B2C9
:10046000402BF7D300BF064E366901273F043E40BC
:10047000002EF8D100BF80F3108800BFF0BD00004F
:100480000020024070B5044600F036FB0619012535
:100490002D0405E000F030FBB04201D3032070BD15
:1004A0001248006928400028F4D11048006910491A
:1004B00008400546481C0D490861002D03D00D4831
:1004C00045600120EBE700F017FB061905E000F09E
:1004D00013FBB04201D30320E1E704480069012186
:1004E000890408400028F2D100BFD8E7002002406C
:1004F000FAC300004800002001460120C006081A87
:10050000C00A70470146002901D10120704725200B
:10051000405C022808D00420C86300BF00222420C9
:10052000425400BF0120F1E7086800680E229043A2
:100530000A681060486C0068FF22013290434A6CE0
:10054000106008680068400840000A68106012489F
:1005500040681C230A6C1A400123934018430E4A3A
:1005600050608A6CC86C5060086D002809D0086D16
:100570000068FF22013290430A6D10604A6D886D59
:10058000506001222520425400BF00222420425402
:1005900000BF0020BAE700000000024070B504462A
:1005A00000252520005D022803D00420E0630125FA
:1005B0003AE0206800680E218843216808602068BE
:1005C00000684008400021680860606C0068FF21F6
:1005D00001318843616C0860144840681C22216C1A
:1005E000114001228A40104310494860A16CE06C20
:1005F0004860206D002809D0206D0068FF2101317E
:100600008843216D0860616DA06D4860012125203F
:10061000015500BF00212420015500BFA06B002818
:1006200002D02046A16B8847284670BD00000240DA
:1006300010B50020C0430A49C8620020C862401EAD
:10064000086300200863401E886200208862401E04
:1006500048620020486200F0E5FA002010BD00006A
:1006600000100240F8B504460F4600BF234800784A
:10067000012801D10220F8BD01202049087000BFE7
:10068000002048607D20C000FFF7FCFE0646002EDB
:100690002CD1042060602068042808D16068FFF72E
:1006A00095FE7D20C000FFF7EDFE06461EE000200F
:1006B000C0433860A5680DE029466068FFF792FEE8
:1006C0007D20C000FFF7DEFE0646002E01D03D6013
:1006D00005E06D1CE168A0684018A842ECD800BF96
:1006E00007484069022188430549486100BF00204E
:1006F0000249087000BF3046BDE7000048000020F6
:1007000000200240012007494969C2071143054AF8
:10071000516111464969C90FC907002900D000205D
:100720007047000000200240F0B51FB40646144692
:100730001D4600BF18480078012802D1022005B0EC
:10074000F0BD01201449087000BF002048607D20E2
:10075000C000FFF797FE0746002F15D1012E05D1E7
:1007600022462B460198FFF74FFE03E021460198F1
:10077000FFF75EFE7D20C000FFF784FE07460748B6
:100780004069B0430549486100BF00200249087034
:1007900000BF3846D3E70000480000200020024098
:1007A000002009494969C90FC90700290BD0074929
:1007B000054A91600649916011464969C90FC90708
:1007C000002900D001207047002002402301674526
:1007D000AB89EFCDF0B502460B46002073E0012552
:1007E00085402946194000296CD0394D8608B6004D
:1007F000AC598507EE0E0F25B5402C4005252D0779
:10080000AA4201D100250FE0324DAA4201D10125B3
:100810000AE0314DAA4201D1022505E02F4DAA423E
:1008200001D1032500E005258607F60EB540A54257
:1008300022D1274D20352D688D43254E2036356039
:1008400035466D688D437560214D603D2D688D4343
:100850001F4E603E356035466D688D437560850777
:10086000EE0E0F25B5402C46194D8608B600AE5940
:10087000A6438708BF00EE51156847000326BE4017
:1008800035431560C508AE0015462035AD594607FD
:10089000F70E0F26BE40B543C608B60017462037F0
:1008A000BD51956847000326BE40B5439560556825
:1008B00001268640B5435560D56847000326BE40F3
:1008C000B543D560401C1D46C540002D87D1F0BD05
:1008D000601802400004005000080050000C005056
:1008E0007047000010B504460A48C0682040002840
:1008F00004D00848C460204600F00EF8054800699E
:100900002040002804D0034804612046FFF7E8FF98
:1009100010BD0000001802407047000070B503468B
:100920000022D5E0012696400C683440002C71D09E
:100930004D68012D08D04D68022D05D04D68112D50
:1009400002D04D68122D18D1986856000325B54085
:100950000646AE4330465600CD68B5402843986001
:100960005868012595400646AE43304610264D682E
:1009700035402D09954028435860D8685600032516
:10098000B5400646AE43304656008D68B540284314
:10099000D8604D68022D02D04D68122D15D1D508B2
:1009A000AE001D462035A8595507EE0E0F25B5405F
:1009B0000646AE4330465607F60E0D69B54028434D
:1009C000D508AD001E462036705118685600032524
:1009D000B5400646AE4330460D79AD07AD0F560023
:1009E000B54028431860012636074D683540B542AA
:1009F0006DD13A4D9608B600A8599507EE0E0F2511
:100A0000B5400646AE43304605252D07AB4202D120
:100A1000002510E05BE0324DAB4201D101250AE038
:100A2000304DAB4201D1022505E02F4DAB4201D143
:100A3000032500E005259607F60EB5402843274D0F
:100A40009608B600A851254D203528680546A543CF
:100A50002846012636044D683540B54202D1054688
:100A6000254328461D4D2035286068680546A54366
:100A70002846012676044D683540B54202D1054628
:100A800025432846154D20356860144D603D286883
:100A90000546A5432846012636054D683540B54232
:100AA00002D10546254328460C4D603D2860686804
:100AB0000546A5432846012676054D683540B542D2
:100AC00002D1054625432846044D603D6860521C0E
:100AD0000D68D540002D00D024E770BD601802409D
:100AE0000004005000080050000C0050002A01D003
:100AF000816100E081627047014800687047000032
:100B00000000002070B50446002C01D1012070BD0A
:100B100014482168086014482168086021686068EA
:100B200048602168A0688860FFF7E6FF054606E098
:100B3000FFF7E2FF401B302801D90320E7E72068D8
:100B4000C0680028F4D120680169E068814203D0C0
:100B50002168E068086102E004482168086000201C
:100B6000D5E70000CCCC000055550000AAAA000033
:100B7000014602480A68106000207047AAAA0000D7
:100B80000348006803490978401801490860704724
:100B9000000000200800002010B50024084800686C
:100BA000FF210131084306490860002000F00AF8DF
:100BB000002801D0012401E000F036F8204610BDE5
:100BC00000200240F8B504460025134800780028AC
:100BD0001ED0114801787D20C000FFF78DFA07462E
:100BE00039460E480068FFF787FA064600F0A4FE73
:100BF00000280BD1042C07D200222146401E00F011
:100C000065F80748046004E0012502E0012500E0E2
:100C100001252846F8BD0000080000200C00002037
:100C2000040000207047000008B500BF0E480068AF
:100C3000012108430C49086008460068C007C00F3E
:100C4000009000BF00BF00BF07484038C06B890557
:100C5000084305494039C8630846C06B0904084089
:100C6000009000BF00BF08BD4010024001460029AF
:100C700015DBCB06DB0E01229A400A4B1A6000BF3F
:100C800000BF00BFBFF34F8F00BF00BF00BF00BF5A
:100C900000BF00BFBFF36F8F00BF00BF00BF00BF2A
:100CA0007047000080E100E00146002909DB00BF39
:100CB00000BFCB06DB0E01229A40034B1A6000BF37
:100CC00000BF00BF7047000000E100E070B50446BF
:100CD0000D4616462946204602F028FE70BD00004B
:100CE00070B5044611480068032149028843204337
:100CF0000E4908604815844216D10D49096806223C
:100D0000514308460B49FFF7F7F9451C05E0002D54
:100D100001D06D1E01E0032070BD0448406901212F
:100D2000890208408842F2D00020F5E700700040B8
:100D30000C00002040420F00FEB5044600270020B2
:100D40000290012149042068084088427BD100209C
:100D500001909648C06BC902084000280ED100BF20
:100D60009248C06B08439149C8630846C06B0904A8
:100D70000840009000BF00BF012001908C4800682F
:100D8000FF21013108438A490860FFF7B5FE064696
:100D900006E0FFF7B1FE801B022801D9032706E019
:100DA00083480068FF21013108400028F1D000BFCE
:100DB000002F4BD17D484030C569032109020D4009
:100DC000002D1AD0606AA84217D078484030C06918
:100DD0008843054675484030C0690121090408432D
:100DE00072494031C8610846C0690121090488433D
:100DF0006E494031C8610846C561E807C00F002848
:100E000013D0FFF779FE064607E0FFF775FE801B5B
:100E10006849884201D9032706E064484030C06928
:100E2000022108400028F0D000BF002F0CD15F48FD
:100E30004030C069032109028843616A08435B4965
:100E40004031C86103E00DE0029700E0029701988D
:100E5000012806D15548C06B012109078843534931
:100E6000C86300BF2078C007C00F002809D04F48D2
:100E70004030406980088000616808434B49403138
:100E8000486110212068084010280AD147484030A6
:100E90004069032189028843A168084343494031DE
:100EA0004861012149022068084088420AD13F4830
:100EB00040304069032189048843616908433B4904
:100EC00040314861012189022068084088420AD1E6
:100ED000364840304069032109058843A169084329
:100EE00032494031486120212068084020280AD139
:100EF0002E4840304069032109038843E1680843D4
:100F00002A4940314861012189032068084088420C
:100F100013D126484030406980008008E1690843C9
:100F20002249403148610906E069884205D11F48DD
:100F3000C068891308431D49C8600121490520681C
:100F40000840884214D1194840304069490088431C
:100F5000216A084315494031486101218905206A09
:100F6000884205D11148C068890008430F49C8600C
:100F70000121C90220680840884215D10B48403041
:100F800040690321890388432169084307494031A7
:100F90004861012189032069884205D10348C0685E
:100FA000890008430149C8600298FEBD0010024054
:100FB000007000408813000070B504460D46002CF8
:100FC00001D1012070BD6B4800684007400FA84266
:100FD00018D268480068C008C00028436549086006
:100FE000FFF78AFD064607E0FFF786FD801B624992
:100FF000884201D90320E5E75E4800684007400FBA
:10100000A842F1D1022120680840022815D104210C
:1010100020680840042807D1584880680721090340
:101020008843401855498860544880680F21090258
:101030008843A1680843514988602078C007C00FE1
:10104000002854D06068012808D14C48006801216C
:101050004904084000282ED10120B3E76068022827
:1010600008D146480068012149060840002822D1DD
:101070000120A7E76068002808D1404800680121E6
:1010800089020840002816D101209BE760680328E8
:1010900008D13A484030006A0221084000280AD1AD
:1010A00001208FE735484030C06902210840002800
:1010B00001D1012086E731488068C008C00061681E
:1010C00008432E498860FFF717FD064607E0FFF743
:1010D00013FD801B2849884201D9032072E7274865
:1010E0008068382108406168C9008842EFD12148F2
:1010F00000684007400FA84218D91E480068C00881
:10110000C00028431B490860FFF7F6FC064607E0CD
:10111000FFF7F2FC801B1849884201D9032051E7F0
:10112000144800684007400FA842F1D1042120680C
:101130000840042808D11148806807210903884322
:10114000E16808430D49886000F0A2F80B498968FE
:101150000F2212021140090A8900094A515CC9068E
:10116000C90EC8400749086007480068FFF72AFD14
:1011700028E7000000200240881300000010024011
:101180008C4000080C0000200400002010B5FFF780
:10119000B3FC04462C480068FF21013108432A496A
:1011A000086006E0FFF7A8FC001B022801D9032015
:1011B00010BD254800680121890208400028F1D0AF
:1011C000080121494860FFF797FC044600201E49AA
:1011D000886007E0FFF790FC001B1C49884201D99A
:1011E0000320E5E718488068382108400028F1D13D
:1011F000FF200130144908600860FFF77DFC0446B9
:1012000006E0FFF779FC001B022801D90320CFE795
:101210000D4800680121490608400028F1D1481313
:101220000949C86000208861401E086208480949D1
:10123000086009480068FFF7C5FC002801D00120BC
:10124000B6E70020B4E70000001002408813000059
:101250000024F4000C000020040000200148006875
:10126000704700000C00002000B5FFF7F7FF0649AB
:101270008968072212031140090B8900034A515C57
:10128000C906C90EC84000BD00100240CC4000088D
:10129000FEB5354880683821084000280DD1324815
:1012A000006809020840C10A0120884000902F48C8
:1012B0000099FEF721FF044654E02B48806838214E
:1012C0000840082801D12A4C4CE027488068382182
:1012D0000840102834D12448C0688607B60F224839
:1012E000C068702108400009401C0190022E0FD0F8
:1012F000032E0CD11E480199FEF7FEFE1A49C9685B
:101300007F2212021140090A484305460DE000BF42
:1013100016480199FEF7F0FE1349C9687F221202B0
:101320001140090A4843054600BF00BF0E48C06887
:10133000400F471C39462846FEF7DEFE044611E002
:101340000948806838210840202801D1840209E03A
:101350000548806838210840182802D17D242402DD
:1013600000E000242046FEBD001002400024F400EE
:1013700000127A00FEB50446002C01D10120FEBD0A
:101380002078C007C00F00286FD0F7488768382141
:101390000F40C0688607B60F102F01D1032E01D071
:1013A000082F0BD1F04800680121490408400028AB
:1013B0005BD06068002858D10120E0E700BF012120
:1013C00009046068884205D1E74800680843E64997
:1013D000086021E005210904606888420ED1E248D6
:1013E0000068012189040843DF4908600846006855
:1013F000012109040843DC4908600DE0DA4800686F
:10140000012109048843D849086008460068012181
:1014100089048843D449086000BF6068002812D05E
:10142000FFF76AFB054606E0FFF766FB401B6428F2
:1014300001D90320A3E7CC480068012149040840F2
:101440000028F1D011E0FFF757FB054606E0FFF753
:1014500053FB401B642801D9032090E7C248006871
:101460000121490408400028F1D1022120680840E8
:10147000022873D1BC488068382108400746BA4822
:10148000C0688607B60F102F01D1022E01D0002FA1
:1014900036D1B5480068012189020840002804D0EF
:1014A000E068002801D1012069E7AF4840687F214A
:1014B00009028843616909020843AB494860002F6B
:1014C00016D1084600680721C902884321690843EC
:1014D000A5490860084600680722D2021040C20AE7
:1014E000012090400146A148FEF706FEA049086091
:1014F000A0480068FFF766FB002849D001203EE7BE
:10150000E06800282BD0984800680721C90288436A
:101510002169084394490860084600688915084312
:1015200091490860FFF7E8FA054606E0FFF7E4FA9C
:10153000401B022801D9032021E78B4800680121C4
:10154000890208400028F1D0874840687F210902BD
:1015500088436169090208438349486018E082486A
:101560000068FF21013188437F490860FFF7C4FA12
:10157000054606E0FFF7C0FA401B022801D9032008
:10158000FDE6794800680121890208400028F1D170
:10159000082120680840082849D17348806838210C
:1015A000084018280BD170484030006A02210840DA
:1015B00000283CD0A069002839D10120DFE6A069CD
:1015C00000281AD068484030006A01210843664963
:1015D00040310862FFF790FA054606E0FFF78CFA03
:1015E000401B022801D90320C9E65F484030006A49
:1015F000022108400028F1D019E05B484030006A21
:1016000040084000584940310862FFF775FA054626
:1016100006E0FFF771FA401B022801D90320AEE66D
:1016200051484030006A022108400028F1D10421CD
:101630002068084004287CD1002001904A48806836
:101640003821084020280BD147484030C06902218A
:10165000084000286ED0A06800286BD101208EE6DB
:101660004148C06B010F01208843002810D000BF03
:101670003D48C06B0121090708433B49C863084640
:10168000C06B09040840009000BF00BF012001901A
:1016900039480068FF2101310840002816D136483A
:1016A0000068084334490860FFF726FA054606E05B
:1016B000FFF722FA401B022801D903205FE62E48DB
:1016C0000068FF21013108400028F1D000BFA06868
:1016D000012808D124484030C0690121084322492B
:1016E0004031C86120E0A06805280FD11E48403075
:1016F000C069042108431C494031C8610846C069DB
:101700000121084318494031C8610DE016484030B6
:10171000C0694108490014484030C161C0690421D2
:10172000884311494031C86100BFA068002816D025
:1017300001E040E03EE0FFF7DFF9054607E0FFF794
:10174000DBF9401B0D49884201D9032017E6064802
:101750004030C069022108400028F0D01EE0FFF7A9
:10176000CBF9054614E00000001002400024F4000C
:101770000C000020040000200070004088130000CE
:10178000FFF7BAF9401B6849884201D90320F6E502
:101790006648C069022108400028F1D1019801285B
:1017A00008D162484038C06B0121090788435F496E
:1017B0004039C86300BFE06900285CD05B4840380E
:1017C00080683821084010286FD0E069022853D182
:1017D000564840380068012109068843534940397A
:1017E0000860FFF789F9054606E0FFF785F9401B19
:1017F000022801D90320C2E54C4840380068012185
:10180000490608400028F0D1616A206A0843A16AAD
:1018100009020843E16A0843216B0843616B0843EE
:1018200042494039C968424A114008433F4940395A
:10183000C860084600680121090608433B49403951
:1018400008600846C0680904084338494039C86040
:10185000FFF752F9054606E0FFF74EF9401B022854
:1018600001D903208BE53148403800680121490641
:1018700008400028F0D054E02C484038006801218E
:10188000090688432949403908600846C06880082D
:101890008000C8600846C06826490840234940398E
:1018A000C860FFF729F9054607E00FE0FFF724F9C4
:1018B000401B022801D9032061E51C48403800681C
:1018C0000121490608400028F0D12AE0E0690128FA
:1018D00000D154E515484038C668B107890F206A21
:1018E00081421CD170203040616A884217D17F202C
:1018F00000023040A16A0902884210D11F20400432
:101900003040E16A88420AD1072040063040216B0E
:10191000884204D1710F4907606B814201D00120D8
:101920002DE500202BE50000881300004010024048
:101930008C80C111FFFFFEEE70B504462546681E7F
:101940000949884201D901200CE0681E0749486115
:101950000321081F01F0EAFF0020044988610720E5
:101960000861002070BD0000FFFFFF0000E000E004
:10197000704770477047000030B502460B4600BF05
:101980003C20805C012801D1022030BD01253C2093
:10199000855400BF02253D208554106841681068B9
:1019A0008468194D1068A84206D10F252D050846F8
:1019B000A84301465868014370250846A8430146DC
:1019C00018680143106841600F4D1068A84208D0A4
:1019D0000125AD071068A84203D00C4D1068A8423D
:1019E00007D180252046A843044698680443106820
:1019F000846001253D20855400BF00253C2085548E
:101A000000BF0020C1E70000002C0140000400409E
:101A100010B5044602213D20015500BF2068006A30
:101A20001B49084000280BD12068006A8910084033
:101A3000002805D12068006840084000216808603F
:101A400000BF204600F05CF800214820015500BF8F
:101A50003E2001553F2001554020015541200155B0
:101A6000422001554320015500BF00BF44200155CD
:101A700045200155462001554720015500BF3D2016
:101A8000015500BF3C20015500BF002010BD0000E3
:101A90001111000010B50446002C01D1012010BD29
:101AA0003D20005D002805D100213C200155204645
:101AB00000F03AF802213D200155211D206801F077
:101AC00021F801214820015500BF3E2001553F204B
:101AD0000155402001554120015542200155432028
:101AE000015500BF00BF4420015545200155462047
:101AF00001554720015500BF3D2001550020CEE78C
:101B000010B5044606492068884208D10548C06BD4
:101B1000022188430349C8631020FFF7A7F810BDCE
:101B2000000400400010024038B504460D4920680A
:101B3000884215D100BF0C48C06B022108430A49F6
:101B4000C8630846C06B02210840009000BF00BF78
:101B5000002211461020FFF7B9F81020FFF7A4F873
:101B600038BD0000000400400010024001463D2046
:101B7000405C012801D00120704702233D204354DE
:101B80000868C068012318430B68D860124B0868C6
:101B9000984208D001239B070868984203D00F4B56
:101BA000086898420FD1086882680D4B1A40062ACF
:101BB0000FD0D81F82420CD0086800680123184358
:101BC0000B68186005E008680068012318430B687B
:101BD00018600020D0E70000002C01400004004005
:101BE0000700010001460868C068400840000A6814
:101BF000D06000BF0868006A0A4A104000280BD174
:101C00000868006A92101040002805D10868006832
:101C1000400840000A68106000BF01223D20425485
:101C20000020704711110000F8B504460D4600BFB2
:101C30003C20005D012801D10220F8BD01213C209B
:101C4000015500BF02213D200155206886683948B2
:101C50000640FF2109023046884306462068866018
:101C60002868502834D00CDC202851D004DC00280F
:101C70004CD0102852D14AE030284AD040284DD1CB
:101C80003AE060282ED0702807D001210903401ABD
:101C900002D0401A42D10DE041E0EB686A68A968C1
:101CA000206800F095FF206886687720064320684A
:101CB000866034E0EB686A68A968206800F088FFF5
:101CC000206880680121890308432168886026E034
:101CD000EA686968206800F095FF5021206800F0EC
:101CE00085FF1CE0EA686968206800F0A4FF6021B5
:101CF000206800F07BFF12E0EA686968206800F065
:101D000081FF4021206800F071FF08E000BF00BFA4
:101D100000BF2968206800F069FF00E000BF00BF35
:101D200001213D20015500BF00213C20015500BF8D
:101D3000002082E788FFCEFF7047000010B5044600
:101D40002068006902210840400800281CD0206853
:101D5000C06808404008002816D0481F2168086164
:101D600001202077206880698007800F002803D039
:101D70002046FFF7E1FF05E0204600F0DBF82046B3
:101D800000F0D9F80020207720680069042108407D
:101D9000800800281DD02068C068084080080028FE
:101DA00017D0C84321680861022020772068806925
:101DB000032109020840002803D02046FFF7BCFF9A
:101DC00005E0204600F0B6F8204600F0B4F8002008
:101DD00020772068006908210840C00800281CD02E
:101DE0002068C0680840C008002816D0C843216891
:101DF0000861042020772068C0698007800F0028D0
:101E000003D02046FFF798FF05E0204600F092F847
:101E1000204600F090F8002020772068006910210B
:101E20000840000900281DD02068C068084000094B
:101E3000002817D0C843216808610820207720684F
:101E4000C069032109020840002803D02046FFF79B
:101E500073FF05E0204600F06DF8204600F06BF8B7
:101E60000020207720680069C007C00F012148408A
:101E7000484000280CD02068C068084048404840CE
:101E8000002805D0C81E21680861204600F054F8DB
:101E90002068006980210840C00900280BD0206814
:101EA000C0680840C009002805D0C84321680861FF
:101EB0002046FFF75EFD20680069FF2101310840E0
:101EC000000A00280CD02068C06880210840C009A2
:101ED000002805D01648216808612046FFF748FD14
:101EE0002068006940210840800900280BD0206844
:101EF000C06808408009002805D0C84321680861EF
:101F0000204600F01AF820680069202108404009A6
:101F100000280BD02068C06808404009002805D080
:101F2000C843216808612046FFF724FD10BD00006A
:101F3000FFFEFFFF7047704770477047704770475C
:101F400070B504460D4600BF8020005D012801D118
:101F5000022070BD01218020015500BF2421842072
:101F60000151206806682068006840084000216828
:101F70000860206880680721490688432843216853
:101F80008860204600F08CFE2068066020218420B6
:101F9000015100BF00218020015500BF0020D8E77B
:101FA0007047704710B50446002C01D1012010BDC8
:101FB00024218420015120680068400840002168E5
:101FC00008600020216808602168486021688860F6
:101FD000204600F00BFA00218C2001518420015191
:101FE000882001510020E06600BF8020015500BF1D
:101FF0000020DCE770470000FEB504462068C56994
:102000002068066820688768D348284002900298B4
:10201000002813D12020284000280FD02020304055
:10202000002804D1012000073840002806D0206F86
:10203000002802D02046216F8847FEBD0298002864
:102040007ED0C6483840002803D1C548304000281B
:10205000F6D0E807C00F00280DD0FF200130304037
:10206000002808D00120216808628C200059012135
:1020700008438C2108510220284000280CD0F80782
:10208000C00F002808D00220216808628C20005967
:10209000042108438C2108510420284000280CD03A
:1020A000F807C00F002808D00420216808628C209F
:1020B0000059022108438C2108510820284000289B
:1020C00010D020203040002803D1A44838400028F8
:1020D00008D00820216808628C2000590821084394
:1020E0008C2108510120C002284000280ED0012078
:1020F00080063040002809D00120C0022168086213
:102100008C200059202108438C2108518C20005933
:1021100000284DD02020284000280ED0202030401C
:10212000002804D1012000073840002805D0206F86
:10213000002802D02046216F88478C20005900E0FB
:1021400037E001902068806840210840402804D092
:10215000282101980840002824D0204600F0D2FE13
:102160002068806840210840402817D12068806896
:10217000884321688860E06F00280BD07948E16FC0
:102180008863E06FFEF70AFA002811D0E06F816BD8
:1021900088470DE02046FFF72DFF09E02046FFF7B6
:1021A00029FF05E02046FFF725FF00218C20015183
:1021B00043E7E06E01287CD11020284000287CD025
:1021C00010203040002878D0102021680862206854
:1021D000806840210840402840D1E06F0068406896
:1021E00080B200900098002837D05C20015B0098F6
:1021F000814232DD5E2100980853E06F006800687C
:102200002021084000281FD120680068C9008843A9
:102210002168086020688068400840002168886064
:1022200020688068402188432168886020218820B8
:1022300001510020E0662068006810218843216871
:102240000860E06FFEF75EF95C20025B5E20005BD9
:10225000101A81B22046FFF771FEEEE65C20015BAA
:102260005E20005B081A80B200905E20005B0028B0
:1022700022D0009800281FD020680068FF2121315B
:10228000884321680860206880683449C943084051
:10229000216888602021882001510020E0662067A5
:1022A0002068006810218843216808602046009952
:1022B00000E002E0FFF742FEBFE6012000052840F3
:1022C00000280CD0012080053840002807D00120CC
:1022D0000005216808622046FFF763FEADE6802016
:1022E000284000280FD080203040002804D1012051
:1022F000C0053840002806D0606F002802D0204674
:10230000616F884799E640202840002807D0402088
:102310003040002803D0204600F014FE8DE6012056
:10232000C0052840002808D0012080073040002840
:1023300003D02046FFF734FE7FE601200006284048
:10234000002807D0F00FC007002803D02046FFF771
:10235000F6FD72E600BF70E60F08000001000010F5
:10236000200100048D2E000810B50446002C01D178
:10237000012010BDA069002800D000E000BF84202B
:102380000059002805D1002180200155204600F089
:1023900061F8242184200151206800684008400031
:1023A00021680860204600F0FFFF012800D1E0E727
:1023B000A06A002802D0204600F0B4FC20684068E3
:1023C0000921C902884321684860206880682A2161
:1023D00088432168886020680068012108432168DB
:1023E0000860204600F016FDC3E7000010B5044663
:1023F00015492068884210D11448006801218903DA
:102400008843124908600321490205200007FEF7AE
:10241000E1F91B20FEF72AFC14E00D4920688842F0
:1024200010D10A484038C06B01214904884307494C
:102430004039C863C91305200007FEF7CBF91C20FB
:10244000FEF714FC10BD00000038014040100240AF
:102450000044004010B586B00446142101A8FDF7E1
:10246000E9FE3D492068884237D100BF3B480068FB
:1024700001218903084339490860084600680121A1
:1024800089030840009000BF00BF00BF33484038B8
:10249000406B012108433149403948630846406B8D
:1024A000C007C00F009000BF00BF03204002019092
:1024B000022002900020039004900120059001A9C1
:1024C00005200007FEF72AFA002201211B20FEF753
:1024D000FDFB1B20FEF7E8FB3BE02149206888421A
:1024E00037D100BF1D484038C06B01214904084363
:1024F0001A494039C8630846C06B012149040840A5
:10250000009000BF00BF00BF14484038406B01215D
:1025100008431249403948630846406BC007C00F62
:10252000009000BF00BFC81301900220029000205D
:10253000039004900120059001A905200007FEF7F3
:10254000EDF9002201211C20FEF7C0FB1C20FEF744
:10255000ABFB06B010BD0000003801404010024047
:102560000044004070B504460D46164688200059C8
:10257000202826D1002D01D0002E01D1012070BDD0
:1025800001210903A068884208D12069002805D1EB
:10259000E807C00F002801D00120F0E700BF80202D
:1025A000005D012801D10220E9E7012180200155C9
:1025B00000BF0020E06632462946204601F07EF842
:1025C000DDE70220DBE77047FFB583B004460D4628
:1025D000174684200059202878D1002D01D0002FE3
:1025E00002D1012007B0F0BD01210903A068884293
:1025F00008D12069002805D1E807C00F002801D0C4
:102600000120EFE700BF8020005D012801D10220FA
:10261000E8E701218020015500BF00218C200151F5
:10262000212184200151FEF767FA019054200753BD
:102630005620075301210903A068884205D120696B
:10264000002802D10026029502E02E4600200290CA
:1026500000BF00218020015500BF21E006980090B6
:10266000002280212046019B01F0BEF8002801D005
:102670000320B7E7002E09D102980088C005C00DDD
:10268000216888620298801C029003E030782168FB
:102690008862761C5620005B401E81B25620015392
:1026A0005620005B0028D9D10698009000224021D6
:1026B0002046019B01F098F8002802D0032091E702
:1026C00004E020218420015100208BE7022089E7CB
:1026D000704700BFFEE7000010B50248FEF748FA59
:1026E00010BD0000E801002000B587B0142102A849
:1026F000FDF7A0FD00BF2648406B04210843244994
:1027000048630846406B04210840019000BF00BFA9
:1027100000BF1F48406B022108431D49486308461B
:10272000406B02210840019000BF00BF00BF184865
:10273000406B01210843164948630846406BC007B7
:10274000C00F019000BF00BF2020029011480390ED
:102750000220049002A905200007FEF7DFF80022FE
:1027600011460720FEF7B2FA0720FEF79DFA402037
:102770000290012003900020049002A90648FEF771
:10278000CDF8012240210448FEF7B0F907B000BDA2
:1027900000100240000011100008005010B5084859
:1027A000084908600420486007490648C160074995
:1027B0008160FEF7A7F9002801D0FDF704FE10BDE7
:1027C00000300040E8010020FF0F0000350C000041
:1027D00000B587B00020039004900590069000900B
:1027E000019002901748184908609F204860002116
:1027F000154881601549C160002101618021816116
:10280000FFF748F9002801D0FDF7DDFD01200003A6
:10281000039003A90C48FFF707FA002801D0FDF741
:10282000D2FD00200090029069460748FFF7A4F807
:10283000002801D0FDF7C7FD0348FFF797F907B05F
:1028400000BD000000040040F801002087130000D4
:1028500010B51348134908604B200002486000215E
:1028600010488160C16001610C21416100218161DA
:10287000C161FFF779FD002801D0FDF7A4FD00211B
:102880000848FFF75DFB002801D0FDF79CFD0548D7
:10289000006800682021084302490968086010BDEB
:1028A000003801404402002010B515481549086061
:1028B000E12040024860002112488160C16001614E
:1028C0000C21416100218161C161016241620020EE
:1028D0000C4988620846FFF747FD002801D0FDF744
:1028E00072FD00210748FFF72BFB002801D0FDF700
:1028F0006AFD012204490348FFF734FE10BD0000C1
:1029000000440040D40200203900002000BFFEE750
:102910007047000010B507480078012802D106482A
:1029200001F048FB03484078012802D1C00601F0BD
:1029300041FB10BD2000002000500008F0B587B01A
:1029400004460E461746002006900590049001208C
:10295000C006844202D32E48844202D3012007B02D
:10296000F0BD2046FDF7C8FD06902A48016806988C
:10297000814205D001202849087026490698086040
:10298000FDF70EFF2448007801281AD10A2001F033
:10299000D1F90020204908700220204908601D4814
:1029A000006888600120C86005A91C48FDF75AFE30
:1029B000002806D01AA0059900F0A8FF0120049075
:1029C0001EE0002519E0012001F0A8F9E800301808
:1029D00003C803910290E800001901900B460146DC
:1029E0000120029AFDF7A0FE002805D010A000F0FB
:1029F0008DFF0120049003E06D1CBD42E3D300BFB6
:102A00000A2001F08BF9FDF77DFE0020A7E700000A
:102A100000000108400000203C0000206404002069
:102A2000666C617368203D20202564200D0A00003B
:102A3000D0B4C8EBD2ECB3A3A3A10D0A00000000F0
:102A4000704710B5FEF79CF810BD000000B59DB0B2
:102A500038210FA8FDF7EEFB00200B900C900D9095
:102A60000E90282101A8FDF7E5FB01204002FEF7AA
:102A700037F90A200F90FF200130129000201390A8
:102A80004020149001201590002016900FA8FEF70A
:102A900071FC002801D0FDF796FC07200B90002068
:102AA0000C900D900E9000210BA8FEF785FA0028DF
:102AB00001D0FDF788FC07480190002002900490A7
:102AC000089001A8FEF738F9002801D0FDF77BFC3B
:102AD0001DB000BD214000000120C00601498860F2
:102AE0007047000000ED00E010B50448FFF726F93C
:102AF00003480068401C0249086010BDF80100202E
:102B00003000002010B50268214B984206D0012306
:102B10009B07984202D01F4B984205D17024134660
:102B2000A3431A464B681A43194B98420FD001230E
:102B30009B0798420BD0174B984208D0164B9842EF
:102B400005D0164B984202D0154B984206D103246B
:102B500024021346A3431A46CB681A438024134623
:102B6000A3434C6923431A4602608B68C3620B6817
:102B70008362074B984205D0084B984202D0084B1D
:102B8000984201D10B6903630123436110BD00002A
:102B9000002C01400004004000200040004401409F
:102BA0000048014010B50848FEF732FF0648FFF71D
:102BB00019F80648C06B022188430449C8631020F5
:102BC000FEF754F810BD0000F8010020001002408C
:102BD00070B50C468168FF2636020D46B54329467E
:102BE0001D02154325432943816070BD0A46816853
:102BF000034B1940072313431943816070470000BA
:102C00008FFFCFFF70B50B461446026A056A6D0848
:102C10006D0005628169F0260D46B5432946250100
:102C200029430A261546B5432A4615461D432A461A
:102C30008161026270BD70B50B461446056A1026AC
:102C4000B54305628169026A0F2636030D46B54316
:102C5000294625032943A0261546B5432A461D01CA
:102C60002A438161026270BD10B50346002B01D07A
:102C7000002906D1002904D0084800680860042013
:102C800010BD064C08682468201A904204D30348FB
:102C9000006808600020F3E70D20F1E73000002015
:102CA000F0B585B004461BA103C9039102901BA196
:102CB00003C901910090606E002805D101216A20AE
:102CC00001536820015322E008270822049220685B
:102CD0008068072149060840450E20688068460F35
:102CE0006A46915D02AA935D049A53431846FDF724
:102CF00019FA81B26A2001536A46515D02AA525DF7
:102D00007A431046FDF70EFA81B26820015305B0F0
:102D1000F0BD0000010101030701000008040204E6
:102D200008010101018DC907C90F002908D00168F8
:102D30004968012252049143C26A114302685160FA
:102D40000222816A1140022907D101684968D20331
:102D50009143026B1143026851600422816A114061
:102D6000042907D10168496812049143426B114359
:102D7000026851600822816A1140082907D1016860
:102D8000496812039143826B11430268516010221B
:102D9000816A1140102907D10168896812029143A4
:102DA000C26B1143026891602022816A1140202980
:102DB00007D10168896812029143026C11430268CD
:102DC00091604022816A1140402915D1016849680B
:102DD00092039143426C1143026851600122120533
:102DE000416C914208D10168496803225205914320
:102DF000826C1143026851608022816A11408029EF
:102E000007D10168496812039143C26C11430268FB
:102E10005160704738B5044600218C200151FDF700
:102E20006BFE0546206800680821084008280BD181
:102E300015482B46002289040090204600F0D4FC5F
:102E4000002801D0032038BD206800680421084014
:102E500004280BD10C482B4600220905009020467F
:102E600000F0C2FC002801D00320ECE720218420E0
:102E70000151882001510020E06600BF0021802020
:102E8000015500BF0020DEE7FFFFFF0170B50546DA
:102E9000AC6A00215E200153562001532046FFF703
:102EA000A9F870BD10B51448FFF77CF81348006806
:102EB0000121890388431149086003214902052043
:102EC0000007FDF787FC1B20FDF7D0FE0C48FFF73D
:102ED00069F80A484038C06B012149048843074912
:102EE0004039C863C91305200007FDF773FC1C2097
:102EF000FDF7BCFE10BD000044020020401002405F
:102F0000D402002001680968FF222132914302683F
:102F10001160016889680A4A114002689160C16EB7
:102F2000012905D1016809681022914302681160E6
:102F3000202288210A500021C166016770470000E5
:102F4000FEFFFFEF10B5044620680068402188436B
:102F500021680860202184200151002060672046FC
:102F6000FFF7B6FB10BDF8B504466020075B88206C
:102F70000059222839D12068406A86B2A56D3046B2
:102F800038402880A06D801CA0655E20005B401E3C
:102F900081B25E200153005B00282CD120680068BC
:102FA000FF2121318843216808602068806840083B
:102FB000400021688860202188200151002020677E
:102FC000E06E01280BD12068006810218843216839
:102FD00008605C20015B2046FEF7B0FF02E020465F
:102FE000FFF7F1FA0020E06605E02068806908211B
:102FF000084321688861F8BDF0B585B004466020BB
:10300000005B04902068C569206800680190206812
:10301000806800908820005922287DD16820005BBC
:10302000029084E02068406A80B20390A76D049902
:10303000039808403880A06D801CA0655E20005B6E
:10304000401E81B25E2001532068C5696807400FA9
:10305000002840D0E807C00F00280ED0FF21013122
:1030600001980840002808D00120216808628C20BF
:103070000059012108438C210851022028400028D2
:103080000DD00098C007C00F002808D0022021688A
:1030900008628C200059042108438C210851042027
:1030A000284000280DD00098C007C00F002808D085
:1030B0000420216808628C200059022108438C21D9
:1030C00008518C200059002805D02046FEF792FFB9
:1030D00000218C2001515E20005B002827D1206850
:1030E0000068FF21013188432168086020688068FA
:1030F0002349084021688860202188200151002050
:103100002067E06E01280DD12068006810218843F7
:10311000216808605C2000E029E0015B2046FEF7A2
:103120000DFF02E02046FFF74EFA0020E06602980D
:10313000002804D020202840002800D072E75E201C
:10314000065B002E19D06820005BB04215DD2068B8
:103150008068012109078843216888600948206741
:1031600020680068202108432168086005E0206885
:103170008069082108432168886105B0F0BD00001E
:10318000FEFFFFEF672F000870B504466020065B66
:1031900088200059222839D12068406A85B2F0B2CF
:1031A0002840A16D0870A06D401CA0655E20005BEA
:1031B000401E81B25E200153005B00282CD12068A4
:1031C0000068FF21213188432168086020688068F9
:1031D000400840002168886020218820015100209B
:1031E0002067E06E01280BD1206800681021884319
:1031F000216808605C20015B2046FEF79FFE02E02C
:103200002046FFF7E0F90020E06605E020688069CD
:10321000082108432168886170BD0000F0B585B0C1
:1032200004466020005B03902068C5692068006840
:1032300001902068806800908820005922287DD164
:103240006820005B029083E02068406A87B20398A0
:10325000C0B23840A16D0870A06D401CA0655E2012
:10326000005B401E81B25E2001532068C56968077B
:10327000400F002840D0E807C00F00280ED0FF21E3
:10328000013101980840002808D001202168086217
:103290008C200059012108438C210851022028402C
:1032A00000280DD00098C007C00F002808D00220C9
:1032B000216808628C200059042108438C210851A0
:1032C0000420284000280DD00098C007C00F002817
:1032D00008D00420216808628C200059022108438C
:1032E0008C2108518C200059002805D02046FEF77B
:1032F00081FE00218C2001515E20005B002827D137
:1033000020680068FF210131884321680860206837
:103310008068234908402168886020218820015165
:1033200000202067E06E01280DD120680068102180
:103330008843216808605C20015B00E028E02046AB
:10334000FEF7FCFD02E02046FFF73DF90020E066B5
:103350000298002804D020202840002800D073E7DD
:103360005E20065B002E19D06820005BB04215DDA0
:10337000206880680121090788432168886009481E
:10338000206720680068202108432168086005E064
:1033900020688069082108432168886105B0F0BD74
:1033A000FEFFFFEF89310008F0B58DB00446002024
:1033B0000590B8492068884200D100E000BF21692B
:1033C000A068084361690843E16908430790606E9B
:1033D00007990843079020680068AF49084007999B
:1033E0000843216808602068406803210903884376
:1033F000E168084321684860A0690790A5492068F2
:10340000884203D0206A07990843079020688068A3
:10341000A249084007990843216888602068C06A6B
:1034200000090001616A08432168C86200BF9C4925
:103430002068884217D19B4840698007800F002888
:1034400006D0012808D0022804D0032808D105E0BE
:10345000002607E0022605E0042603E0082601E036
:10346000102600BF25E090492068884201D100263F
:103470001FE08849206888421AD18A4840690321A0
:1034800089020840002808D001218902401A08D08A
:10349000401A04D0401A08D105E0002607E00226B1
:1034A00005E0042603E0082601E0102600BF00E046
:1034B000102600BF77492068884263D1002E06D0CD
:1034C000022E08D0042E08D0082E0DD109E0FDF7F9
:1034D000CBFE05460CE0754D0AE0FDF7D9FE05462A
:1034E00006E00125ED0303E000250120059000BF63
:1034F00000BF002D14D0606A40006D4A115A284662
:10350000FCF7FAFD0490606841004118049881427C
:1035100004D8606801030498814202D2012005901A
:10352000ADE0606A40006249085A024600230190FB
:1035300028461946FCF70AFEFF23013300220993AF
:1035400008920A910B901A46089BFCF72FFE6268BE
:103550005208002380185941039102906068024686
:1035600001900298FCF7F2FD0746032109028F4201
:1035700005D35048874202D82068C7607FE0012009
:1035800005907CE00121C903E069884241D1002E09
:1035900006D0022E08D0042E08D0082E0DD109E046
:1035A000FDF762FE05460CE0404D0AE0FDF770FEB7
:1035B000054606E00125ED0303E000250120059006
:1035C00000BF00BF002D5AD0606A4000384A115A2F
:1035D0002846FCF791FD40006168490840180390B7
:1035E0006168FCF789FD87B2102F0FD332488742FC
:1035F0000CD831480F38384006903807400F0699EC
:103600000843069006982168C86038E001200590BC
:1036100035E0002E06D0022E08D0042E08D0082E49
:103620000DD109E0FDF720FE05460CE01F4D0AE034
:10363000FDF72EFE054606E00125ED0303E000251B
:103640000120059000BF00BF002D18D0606A400027
:10365000174A115A2846FCF74FFD6168490840187F
:1036600003906168FCF748FD87B2102F05D312481C
:10367000874202D82068C76001E00120059001213F
:103680006A20015368200153002020676067059875
:103690000DB0F0BD00800040F369FFCFFFF4FF11D3
:1036A0000038014040100240004400400024F40073
:1036B0006A400008FFFF0F00FFFF000010B503463F
:1036C00099655C20C2525E20C2520020186700BF7C
:1036D000012424039868A0420AD11869002803D164
:1036E0003C4C6020C45224E0FF246020C45220E0FF
:1036F000986800280AD11869002803D1FF246020A7
:10370000C45216E07F246020C45212E00124240732
:103710009868A0420AD11869002803D17F2460204C
:10372000C45206E03F246020C45202E0002460201E
:10373000C45200BF00248C20C45022248820C450CE
:1037400018688068012420431C68A0600124640775
:10375000586EA04223D16820C05A90421FDC6414E6
:103760009868A04205D11869002802D11A48186744
:1037700001E01A48186700BF00248020C45400BF2D
:1037800018680068FF24013420431C682060186812
:1037900080680124240720431C68A06018E00124ED
:1037A00024039868A04205D11869002802D10C486A
:1037B000186701E00B48186700BF00248020C4543C
:1037C00000BF18680068FF24213420431C68206073
:1037D000002010BDFF010000F92F00081D32000875
:1037E000672F000889310008FFB581B004460D46F7
:1037F00017460A9E4FE0701C00284CD0FDF77CF95C
:103800000499401AB04201D8002E19D120680068EE
:10381000FF21A13188432168086020688068400842
:1038200040002168886020218420015188200151B6
:1038300000BF00218020015500BF032005B0F0BD6E
:103840002068006804210840002824D02068C0694E
:1038500049020840C00A00281DD0084621680862B5
:1038600020680068FF21A131884321680860206832
:103870008068400840002168886020218420015130
:10388000882001518C20015100BF0021802001556A
:1038900000BF0320D2E72068C0692840A84201D1B8
:1038A000012000E00020B842A5D00020C6E70000BB
:1038B00010B50E48FEF7A0FB0C480068C0690B4825
:1038C0000068006809480068C0690120084908705C
:1038D00006480068406A0749074A12888854064823
:1038E0000088401C0449088010BD000044020020EC
:1038F00034000020640300203600002010B5024888
:10390000FEF77AFB10BD0000D40200200FB410B502
:1039100003A9044B044A029800F054F810BC08BCF8
:1039200004B018477D3D00084400002010B5002871
:1039300019DB1A4A03231B02D21883089B00D258B2
:103940008307DC0EFF23A3409A438B071B0E8407DB
:10395000E40EA3401A43114B032424021B198408CC
:10396000A4001A5118E00E4A03071B0F083B9B08DE
:103970009B00D2588307DC0EFF23A3409A438B079A
:103980001B0E8407E40EA3401A43054B0407240FC3
:10399000083CA408A4001A5110BD000000E100E09A
:1039A0001CED00E002E008C8121F08C1002AFAD18D
:1039B00070477047002001E001C1121F002AFBD1AF
:1039C00070470000FFB58DB00446002506E02528AD
:1039D0000AD0109A0F999047641C6D1C207800281B
:1039E000F5D1284611B0F0BD00270121484A0097C3
:1039F00000E00743641C23780846203B98401042AF
:103A0000F7D120782E2817D1042007436078641C52
:103A10002A280CD10E98641C02C800910E900BE06D
:103A200000990A22514330394018641C00902078D4
:103A3000014630390929F3D920780028D1D06428EB
:103A400008D0692806D075281ED0109A0F99904783
:103A50006D1C5BE00A200E99019001C90E910028AF
:103A600002DA40422D2102E0390504D52B216A46B5
:103A70001172012103E0F90704D02021F7E70BAE12
:103A80000B910DE00021FAE70A200E99019001C97F
:103A90000E91F7E70199FCF72FFB3031761E31705C
:103AA0000028F7D103A8801B20300190780701D5AA
:103AB000009801E0012000900199884201DD401A40
:103AC00000E000200027009006E002A8109AC05DE8
:103AD0000F9990476D1C7F1C0B988742F5DB04E023
:103AE000109A30200F9990476D1C0099481E009045
:103AF0000029F5DC05E03078109A761C0F99904784
:103B00006D1C0199481E01900029F4DC641C65E7D6
:103B10000928010070B50024002511488079BB28D0
:103B200019D100BF0E4804792402407904430421CE
:103B30000B48FCF71DFC0546AC4208D100200949A2
:103B4000086009490880212000F054FA06E0282086
:103B500000F050FA02E0282000F04CFA002070BD7E
:103B6000640300201C0000203600002070B50024F3
:103B700000250F488079BB2816D10D48047924020E
:103B80004079044304210A48FCF7F2FB0546A542AC
:103B900006D1412000F02EFA01200649487006E0C7
:103BA000282000F027FA02E0282000F023FA70BD58
:103BB000640300202000002070B5002400250E487A
:103BC0008079BB2815D10C4804792402407904433C
:103BD00004210948FCF7CCFB0546A54209D1002089
:103BE00006490860252000F005FA01200449087004
:103BF00070BD00BFFCE70000640300201C00002033
:103C000020000020FEB5002500240026002700200B
:103C100001903E48C4783E480188204609308142E0
:103C20006AD100BF3949401E085CBB285CD1201D09
:103C30000E5C3602601D085C0643A01D0F5C3F024F
:103C4000E01D085C0743A01DC1B23048FCF790FBA3
:103C500001900198B8423FD12E480068B04224D16B
:103C60002A48801D0090801F05792D024079054368
:103C70000120C0062D18A11E2846009A00F01AF94E
:103C8000002806D0422000F0B5F9012022494870F2
:103C9000FEBD222000F0AEF91E480068401C1D4900
:103CA000086000201A4908802EE01A480168701C3C
:103CB00081420DD117480068401E16490860222035
:103CC00000F098F913480068401C124908601BE096
:103CD000222000F08FF917E0232000F08BF900205C
:103CE0000B4908800220D3E7232000F083F900204D
:103CF000074908800220CBE7232000F07BF9002051
:103D0000034908800220C3E70020C1E764030020C4
:103D1000360000201C0000202000002030B50446A2
:103D2000002504E07D20C00000F004F86D1CA542D1
:103D3000F8D330BD70B5034600220E4E75690E4EA5
:103D400036685E4334460B4EB1690FE0094EB069E8
:103D500088420BD0884202D20E1AB21802E02E1A04
:103D60007618B2180146A24200D300E0EEE700BF89
:103D700070BD000000E000E02C00002013B50C46F0
:103D8000034B012269460348FEF71EFC00981CBD48
:103D9000FFFF0000D402002038B57D20C000009055
:103DA00000203D4908704870002419E00620FFF704
:103DB000B5FF3A48007800280FD000203749087036
:103DC0003749088037480078312806D10020364925
:103DD0000860292000F00EF905E00098401E0090D0
:103DE00000980028E2D100BF0098002806D12720C3
:103DF00000F000F901202849487038BD1E20FFF767
:103E00008DFF47E029480078002801D1012000E01B
:103E10000020264908700846027840212448FCF713
:103E200065FE3C20FFF77AFFFEF756FC1D48007840
:103E3000FE282BD11B484078FE2827D119488078CE
:103E400032280ED0332804D037280DD045280ED183
:103E500003E0FFF7D7FE044611E0FFF7ADFE04468E
:103E60000DE0FFF757FE0AE0FFF780FE07E00020B5
:103E70000B490880232000F0BDF8012400BF00BFDB
:103E8000012C00D1B9E7022C03D103E00020044942
:103E9000088000BFB6E700002000002034000020AA
:103EA00036000020640300201C00002022000020B7
:103EB00000080050F7B584B0002003900290002461
:103EC00004980190069F0020054606460598400785
:103ED000400F03900398002802D0012007B0F0BDE6
:103EE0000598C0080390002002903FE0E000C01D4C
:103EF000385C00060643E000801D385C0004064381
:103F0000E000401D385C00020643E000001D385C04
:103F10000643E000C01C385C0021020A0906114378
:103F2000000605430E43E000801C385C0021020CB3
:103F300009041143000405430E43E000401C395CB2
:103F400000200A0E0002104309020D430643E00060
:103F5000385C05432046641CC0001549081860C041
:103F600000210D460E460298401C029003990298CB
:103F70008842BBD3102C0ED1002410220C4901988A
:103F8000FEF7DCFC002801D00120A7E7012189020F
:103F9000019840180190002C08D02246044901984D
:103FA000FEF7CCFC002801D0012097E7002095E720
:103FB0006801002070B5044620680A4908400121C4
:103FC000490788420CD1FEF7EDFDFEF76BFFFDF7C8
:103FD000DDF8FCF72DFB65682068FCF77BF8A84747
:103FE00070BD00000000FE2FFCF762F901E0FCF755
:103FF00063F9FCE770B50446FE200F49087048706D
:10400000084684700D4800680004000EC8700B4814
:104010000068087105210848FCF7AAF9054628043C
:10402000000E054948718D71BB20C87108210248F6
:1040300000F006F870BD0000230000201C000020E6
:1040400070B504460D460126044B2A462146044815
:10405000FEF7BAFA0646304670BD0000FFFF0000CA
:1040600044020020081C30445800010002000400F3
:10407000060008000A000C0010002000400080002C
:1040800000010000081C304458000000000000003F
:104090000000000000000000000000000000000020
:1040A000000000000000000000000000010000000F
:1040B00002000000030000000400000006000000F1
:1040C00007000000080000000900000000000000D8
:1040D00000000000000000000000000001000000DF
:1040E0000200000003000000040000000C41000872
:1040F0000000002048000000A439000854410008D6
:104100004800002030080000B4390008000000001A
:1041100004000000010000000024F4000000000082
:10412000000000000000000000000000000000008F
:10413000000000000000000030000000000000004F
:10414000000000000000000000000000000000006F
:04415000000000006B
:04000005080000C12E
:00000001FF
